{
	"data": {
		"bytecode": {
			"linkReferences": {},
			"object": "6080604052610106546101075534801561001857600080fd5b50613089806100286000396000f3fe60806040526004361061023f5760003560e01c806369ddcb1b1161012e578063a45cdbf0116100ab578063d56ac1a11161006f578063d56ac1a11461085c578063dd0e5da514610873578063dd62ed3e146108a1578063e8e384da146108e7578063f2fde38b146108fd576102f6565b8063a45cdbf0146107a1578063a9059cbb146107f0578063b6f1de9514610810578063be4cd1a314610826578063c08d6f581461083c576102f6565b80637a682010116100f25780637a6820101461070f5780638129fc1c1461072f5780638da5cb5b1461074457806395d89b411461076c578063a457c2d714610781576102f6565b806369ddcb1b146106645780636d8950221461068457806370a08231146106a4578063715018a6146106da578063758fd17e146106ef576102f6565b80633659cfe6116101bc5780634f1ef286116101805780634f1ef286146105e957806357d3eb2b146105fc578063587840761461061c5780635eeb67101461062f57806368f8715914610644576102f6565b80633659cfe6146104f157806339509351146105115780633bbea80d146105315780633c268fa91461058c5780633ddbda30146105a2576102f6565b80631cc4a4f6116102035780631cc4a4f61461041d57806323b872dd1461043357806327f25ee1146104535780632dfe994214610475578063313ce567146104d5576102f6565b806306fdde0314610371578063095ea7b31461039c5780630b563364146103cc5780630e63b00d146103f157806318160ddd14610408576102f6565b366102f6576101005460ff16156102715760405162461bcd60e51b815260040161026890612add565b60405180910390fd5b6101005460ff161561028557610285612b14565b610100805460ff1916600117905560408051602a815233602082015234918101919091526001600160e01b03196000351660608201527f790834c3bc81e28b2a15d8d38cc0ff83412ac8ad396d299ae40d338a9f45bfe8906080015b60405180910390a1610100805460ff19169055005b6101005460ff161561031a5760405162461bcd60e51b815260040161026890612add565b6101005460ff161561032e5761032e612b14565b610100805460ff19166001179055604080513381523460208201527f395974aff5f94df364c25825392c2022afb65310e910502d6b79549912caa33f91016102e1565b34801561037d57600080fd5b5061038661091d565b6040516103939190612b56565b60405180910390f35b3480156103a857600080fd5b506103bc6103b7366004612b9e565b6109af565b6040519015158152602001610393565b3480156103d857600080fd5b506103e36101075481565b604051908152602001610393565b3480156103fd57600080fd5b506103e36101085481565b34801561041457600080fd5b506035546103e3565b34801561042957600080fd5b506103e360fe5481565b34801561043f57600080fd5b506103bc61044e366004612bca565b6109c6565b34801561045f57600080fd5b5061047361046e366004612c0b565b610a72565b005b34801561048157600080fd5b506104b6610490366004612c24565b61010360205260009081526040902080546001909101546001600160a01b039091169082565b604080516001600160a01b039093168352602083019190915201610393565b3480156104e157600080fd5b5060405160128152602001610393565b3480156104fd57600080fd5b5061047361050c366004612c24565b610ae9565b34801561051d57600080fd5b506103bc61052c366004612b9e565b610b10565b34801561053d57600080fd5b5061057161054c366004612c0b565b61010260205260009081526040902080546001820154600290920154909160ff169083565b60408051938452911515602084015290820152606001610393565b34801561059857600080fd5b506103e360fd5481565b3480156105ae57600080fd5b506103e36105bd366004612c41565b604080516020808201949094528082019290925280518083038201815260609092019052805191012090565b6104736105f7366004612c79565b610b4c565b34801561060857600080fd5b50610473610617366004612b9e565b610b65565b61047361062a366004612c0b565b610c1b565b34801561063b57600080fd5b506103e3610c92565b34801561065057600080fd5b506103e361065f366004612c0b565b610cff565b34801561067057600080fd5b5061047361067f366004612c0b565b610d21565b34801561069057600080fd5b506103e361069f366004612c0b565b610e20565b3480156106b057600080fd5b506103e36106bf366004612c24565b6001600160a01b031660009081526033602052604090205490565b3480156106e657600080fd5b50610473610e31565b3480156106fb57600080fd5b5061047361070a366004612c0b565b610e67565b34801561071b57600080fd5b506103e361072a366004612c0b565b610edf565b34801561073b57600080fd5b50610473610ef0565b34801561075057600080fd5b506065546040516001600160a01b039091168152602001610393565b34801561077857600080fd5b506103866110f7565b34801561078d57600080fd5b506103bc61079c366004612b9e565b611106565b3480156107ad57600080fd5b506107c16107bc366004612c0b565b61119f565b604051610393949392919093845260208401929092526001600160a01b03166040830152606082015260800190565b3480156107fc57600080fd5b506103bc61080b366004612b9e565b6111e3565b34801561081c57600080fd5b506103e360fc5481565b34801561083257600080fd5b506103e360ff5481565b34801561084857600080fd5b50610473610857366004612c0b565b6111f0565b34801561086857600080fd5b506103e361010b5481565b34801561087f57600080fd5b506103e361088e366004612c0b565b6101046020526000908152604090205481565b3480156108ad57600080fd5b506103e36108bc366004612d3d565b6001600160a01b03918216600090815260346020908152604080832093909416825291909152205490565b3480156108f357600080fd5b506103e360fb5481565b34801561090957600080fd5b50610473610918366004612c24565b611588565b60606036805461092c90612d76565b80601f016020809104026020016040519081016040528092919081815260200182805461095890612d76565b80156109a55780601f1061097a576101008083540402835291602001916109a5565b820191906000526020600020905b81548152906001019060200180831161098857829003601f168201915b5050505050905090565b60006109bc338484611620565b5060015b92915050565b60006109d3848484611744565b6001600160a01b038416600090815260346020908152604080832033845290915290205482811015610a585760405162461bcd60e51b815260206004820152602860248201527f45524332303a207472616e7366657220616d6f756e74206578636565647320616044820152676c6c6f77616e636560c01b6064820152608401610268565b610a658533858403611620565b60019150505b9392505050565b6065546001600160a01b03163314610a9c5760405162461bcd60e51b815260040161026890612db1565b6101005460ff1615610ac05760405162461bcd60e51b815260040161026890612add565b6101005460ff1615610ad457610ad4612b14565b610100805460fe9290925560ff199091169055565b610af281611914565b610b0d8160405180602001604052806000815250600061193e565b50565b3360008181526034602090815260408083206001600160a01b038716845290915281205490916109bc918590610b47908690612dfc565b611620565b610b5582611914565b610b618282600161193e565b5050565b6065546001600160a01b03163314610b8f5760405162461bcd60e51b815260040161026890612db1565b6101005460ff1615610bb35760405162461bcd60e51b815260040161026890612add565b6101005460ff1615610bc757610bc7612b14565b610100805460ff191660011790556040516001600160a01b0383169082156108fc029083906000818181858888f19350505050158015610c0b573d6000803e3d6000fd5b5050610100805460ff1916905550565b6065546001600160a01b03163314610c455760405162461bcd60e51b815260040161026890612db1565b6101005460ff1615610c695760405162461bcd60e51b815260040161026890612add565b6101005460ff1615610c7d57610c7d612b14565b610100805460ff9290925560ff199091169055565b60008060fb5442610ca39190612e14565b90506000610cd6610cc8610cb684611ac6565b610cc36301e13380611ac6565b611b13565b670de0b6b3a7640000900490565b9050610cf8610cf0610cb6610ceb8585611b28565b611ac6565b60fe54611b5e565b9250505090565b6101098181548110610d1057600080fd5b600091825260209091200154905081565b6065546001600160a01b03163314610d4b5760405162461bcd60e51b815260040161026890612db1565b6101005460ff1615610d6f5760405162461bcd60e51b815260040161026890612add565b6101005460ff1615610d8357610d83612b14565b610100805460ff191660011790556101085481118015610dab5750610da9600282612e41565b155b610e0f5760405162461bcd60e51b815260206004820152602f60248201527f466f726d6174696f6e4e756d6265722063616e6e6f742062652072656475636560448201526e321037b91037b23210373ab6b132b960891b6064820152608401610268565b61010855610100805460ff19169055565b6101068181548110610d1057600080fd5b6065546001600160a01b03163314610e5b5760405162461bcd60e51b815260040161026890612db1565b610e656000611b6a565b565b6065546001600160a01b03163314610e915760405162461bcd60e51b815260040161026890612db1565b6101005460ff1615610eb55760405162461bcd60e51b815260040161026890612add565b6101005460ff1615610ec957610ec9612b14565b610100805461010b9290925560ff199091169055565b61010a8181548110610d1057600080fd5b600054610100900460ff1680610f09575060005460ff16155b610f255760405162461bcd60e51b815260040161026890612e55565b600054610100900460ff16158015610f47576000805461ffff19166101011790555b610f8d60405180604001604052806009815260200168456e74726f4265616d60b81b8152506040518060400160405280600381526020016208a92b60eb1b815250611bbc565b610f95611c3c565b610f9d611cb7565b610fc033610fad6012600a612f87565b610fbb90633b9aca00612f96565b611d1e565b604080516080810182526001808252600060208301818152938301818152606084018281526101018054808601825590845294517f109ea3cebb188b9c1b9fc5bb3920be60dfdc8699098dff92f3d80daaca74768960049096029586015594517f109ea3cebb188b9c1b9fc5bb3920be60dfdc8699098dff92f3d80daaca74768a850155517f109ea3cebb188b9c1b9fc5bb3920be60dfdc8699098dff92f3d80daaca74768b840180546001600160a01b0319166001600160a01b0390921691909117905592517f109ea3cebb188b9c1b9fc5bb3920be60dfdc8699098dff92f3d80daaca74768c9092019190915560fd554260fb55600d60fe5561010b5560126110cc90600a612f87565b6110da906301c9c380612f96565b60ff55600a610108558015610b0d576000805461ff001916905550565b60606037805461092c90612d76565b3360009081526034602090815260408083206001600160a01b0386168452909152812054828110156111885760405162461bcd60e51b815260206004820152602560248201527f45524332303a2064656372656173656420616c6c6f77616e63652062656c6f77604482015264207a65726f60d81b6064820152608401610268565b6111953385858403611620565b5060019392505050565b61010181815481106111b057600080fd5b60009182526020909120600490910201805460018201546002830154600390930154919350916001600160a01b03169084565b60006109bc338484611744565b6101005460ff16156112145760405162461bcd60e51b815260040161026890612add565b6101005460ff161561122857611228612b14565b610100805460ff191660011790554360009081526101046020526040812080549091829061125583612fb5565b919050555060005a600084815261010260205260409020600180820154929350909160ff16151514156112c15760405162461bcd60e51b81526020600482015260146024820152734475706c6963617465205365656473204461746160601b6044820152606401610268565b8381556113bd8443846040805160808101825293845260208401928352339084019081526060840191825261010180546001808201835560009290925294517f109ea3cebb188b9c1b9fc5bb3920be60dfdc8699098dff92f3d80daaca74768960049096029586015592517f109ea3cebb188b9c1b9fc5bb3920be60dfdc8699098dff92f3d80daaca74768a850155517f109ea3cebb188b9c1b9fc5bb3920be60dfdc8699098dff92f3d80daaca74768b840180546001600160a01b0319166001600160a01b03909216919091179055517f109ea3cebb188b9c1b9fc5bb3920be60dfdc8699098dff92f3d80daaca74768c9092019190915590565b60018201805460ff191691151591909117905560fc80549060006113e083612fb5565b91905055503360009081526101036020526040902080546001600160a01b03161561140a5761141b565b80546001600160a01b031916331781555b60018101805490600061142d83612fb5565b919050555060005b610106548110156114c957610101610106828154811061145757611457612fd0565b90600052602060002001548154811061147257611472612fd0565b60009182526020822060036004909202010154610105805460018101825592527ffc62abc8c0fc47c2d92f5aec99bf8b60f375828e14394d89345cae11a986737190910155806114c181612fb5565b915050611435565b5061152a61010580548060200260200160405190810160405280929190818152602001828054801561151a57602002820191906000526020600020905b815481526020019060010190808311611506575b5050610105549250611dfd915050565b506115386101056000612a26565b505060fc54610106805460018101825560008290527fc9ef9fceea91e87b2c84ea400a44fde78842aae8aa24cd4b502ce5fb4d91e63b019190915554610107555050610100805460ff1916905550565b6065546001600160a01b031633146115b25760405162461bcd60e51b815260040161026890612db1565b6001600160a01b0381166116175760405162461bcd60e51b815260206004820152602660248201527f4f776e61626c653a206e6577206f776e657220697320746865207a65726f206160448201526564647265737360d01b6064820152608401610268565b610b0d81611b6a565b6001600160a01b0383166116825760405162461bcd60e51b8152602060048201526024808201527f45524332303a20617070726f76652066726f6d20746865207a65726f206164646044820152637265737360e01b6064820152608401610268565b6001600160a01b0382166116e35760405162461bcd60e51b815260206004820152602260248201527f45524332303a20617070726f766520746f20746865207a65726f206164647265604482015261737360f01b6064820152608401610268565b6001600160a01b0383811660008181526034602090815260408083209487168084529482529182902085905590518481527f8c5be1e5ebec7d5bd14f71427d1e84f3dd0314c0f7b2291e5b200ac8c7c3b925910160405180910390a3505050565b6001600160a01b0383166117a85760405162461bcd60e51b815260206004820152602560248201527f45524332303a207472616e736665722066726f6d20746865207a65726f206164604482015264647265737360d81b6064820152608401610268565b6001600160a01b03821661180a5760405162461bcd60e51b815260206004820152602360248201527f45524332303a207472616e7366657220746f20746865207a65726f206164647260448201526265737360e81b6064820152608401610268565b6001600160a01b038316600090815260336020526040902054818110156118825760405162461bcd60e51b815260206004820152602660248201527f45524332303a207472616e7366657220616d6f756e7420657863656564732062604482015265616c616e636560d01b6064820152608401610268565b6001600160a01b038085166000908152603360205260408082208585039055918516815290812080548492906118b9908490612dfc565b92505081905550826001600160a01b0316846001600160a01b03167fddf252ad1be2c89b69c2b068fc378daa952ba7f163c4a11628f55a4df523b3ef8460405161190591815260200190565b60405180910390a35b50505050565b6065546001600160a01b03163314610b0d5760405162461bcd60e51b815260040161026890612db1565b60006119717f360894a13ba1a3210667c828492db98dca3e2076cc3735a920a3ca505d382bbc546001600160a01b031690565b905061197c84611f0f565b6000835111806119895750815b1561199a576119988484611fb4565b505b7f4910fdfa16fed3260ed0e7147f7cc6da11a60208b5b9406d12a635614ffd9143805460ff16611abf57805460ff191660011781556040516001600160a01b0383166024820152611a1990869060440160408051601f198184030181529190526020810180516001600160e01b0316631b2ce7f360e11b179052611fb4565b50805460ff191681557f360894a13ba1a3210667c828492db98dca3e2076cc3735a920a3ca505d382bbc546001600160a01b03838116911614611ab65760405162461bcd60e51b815260206004820152602f60248201527f45524331393637557067726164653a207570677261646520627265616b73206660448201526e75727468657220757067726164657360881b6064820152608401610268565b611abf8561209f565b5050505050565b60007812725dd1d243aba0e75fe645cc4873f9e65afe688c928e1f21821115611b0557604051633492ffd960e01b815260048101839052602401610268565b50670de0b6b3a76400000290565b6000610a6b83670de0b6b3a7640000846120df565b6000611b51611b3684611ac6565b611b4c611b4285611ac6565b610cc36064611ac6565b611b5e565b60ff54610a6b9190612e14565b6000610a6b83836121ad565b606580546001600160a01b038381166001600160a01b0319831681179093556040519116919082907f8be0079c531659141344cd1fd0a4f28419497f9722a3daafe3b4186f6b6457e090600090a35050565b600054610100900460ff1680611bd5575060005460ff16155b611bf15760405162461bcd60e51b815260040161026890612e55565b600054610100900460ff16158015611c13576000805461ffff19166101011790555b611c1b61226f565b611c2583836122d9565b8015611c37576000805461ff00191690555b505050565b600054610100900460ff1680611c55575060005460ff16155b611c715760405162461bcd60e51b815260040161026890612e55565b600054610100900460ff16158015611c93576000805461ffff19166101011790555b611c9b61226f565b611ca361236e565b8015610b0d576000805461ff001916905550565b600054610100900460ff1680611cd0575060005460ff16155b611cec5760405162461bcd60e51b815260040161026890612e55565b600054610100900460ff16158015611d0e576000805461ffff19166101011790555b611d1661226f565b611ca361226f565b6001600160a01b038216611d745760405162461bcd60e51b815260206004820152601f60248201527f45524332303a206d696e7420746f20746865207a65726f2061646472657373006044820152606401610268565b8060356000828254611d869190612dfc565b90915550506001600160a01b03821660009081526033602052604081208054839290611db3908490612dfc565b90915550506040518181526001600160a01b038316906000907fddf252ad1be2c89b69c2b068fc378daa952ba7f163c4a11628f55a4df523b3ef9060200160405180910390a35050565b600081611e0c575060006109c0565b611e18836000846123ce565b6000611e25600284612e41565b15611e535783611e36600285612fe6565b81518110611e4657611e46612fd0565b6020026020010151611eb1565b611eb1846001611e64600287612fe6565b611e6e9190612e14565b81518110611e7e57611e7e612fd0565b602002602001015185600286611e949190612fe6565b81518110611ea457611ea4612fd0565b6020026020010151612486565b9050611ebc816124a1565b50611ec8600284612e41565b15611ef65783611ed9600285612fe6565b81518110611ee957611ee9612fd0565b6020026020010151611f07565b611f07846001611e64600287612fe6565b949350505050565b803b611f735760405162461bcd60e51b815260206004820152602d60248201527f455243313936373a206e657720696d706c656d656e746174696f6e206973206e60448201526c1bdd08184818dbdb9d1c9858dd609a1b6064820152608401610268565b7f360894a13ba1a3210667c828492db98dca3e2076cc3735a920a3ca505d382bbc80546001600160a01b0319166001600160a01b0392909216919091179055565b6060823b6120135760405162461bcd60e51b815260206004820152602660248201527f416464726573733a2064656c65676174652063616c6c20746f206e6f6e2d636f6044820152651b9d1c9858dd60d21b6064820152608401610268565b600080846001600160a01b03168460405161202e9190612ffa565b600060405180830381855af49150503d8060008114612069576040519150601f19603f3d011682016040523d82523d6000602084013e61206e565b606091505b5091509150612096828260405180606001604052806027815260200161302d6027913961290c565b95945050505050565b6120a881611f0f565b6040516001600160a01b038216907fbc7cd75a20ee27fd9adebab32041f755214dbc6bffa90cc0225b39da2e5c2d3b90600090a250565b60008080600019858709858702925082811083820303915050806000141561211a5783828161211057612110612e2b565b0492505050610a6b565b83811061214457604051631dcf306360e21b81526004810182905260248101859052604401610268565b60008486880960026001871981018816978890046003810283188082028403028082028403028082028403028082028403028082028403029081029092039091026000889003889004909101858311909403939093029303949094049190911702949350505050565b60008080600019848609848602925082811083820303915050670de0b6b3a764000081106121f15760405163698d9a0160e11b815260048101829052602401610268565b600080670de0b6b3a76400008688099150506706f05b59d3b1ffff81118261222b5780670de0b6b3a76400008504019450505050506109c0565b620400008285030493909111909103600160ee1b02919091177faccb18165bd6fe31ae1cf318dc5b51eee0e1ba569b88cd74c1773b91fac106690201905092915050565b600054610100900460ff1680612288575060005460ff16155b6122a45760405162461bcd60e51b815260040161026890612e55565b600054610100900460ff16158015611ca3576000805461ffff19166101011790558015610b0d576000805461ff001916905550565b600054610100900460ff16806122f2575060005460ff16155b61230e5760405162461bcd60e51b815260040161026890612e55565b600054610100900460ff16158015612330576000805461ffff19166101011790555b8251612343906036906020860190612a44565b508151612357906037906020850190612a44565b508015611c37576000805461ff0019169055505050565b600054610100900460ff1680612387575060005460ff16155b6123a35760405162461bcd60e51b815260040161026890612e55565b600054610100900460ff161580156123c5576000805461ffff19166101011790555b611ca333611b6a565b80821015611c3757600082905060008482815181106123ef576123ef612fd0565b6020026020010151905060008460016124089190612dfc565b90505b8381101561245a578186828151811061242657612426612fd0565b6020026020010151101561244a5761244a868261244286612fb5565b955085612945565b61245381612fb5565b905061240b565b50612466858584612945565b6124718585846123ce565b611abf85612480846001612dfc565b856123ce565b60006124956002848418612fe6565b610a6b90848416612dfc565b60008061010b5461010160fd54815481106124be576124be612fd0565b9060005260206000209060040201600101546124da9190612dfc565b431180156124ee5750610108546101065410155b156109c05760006125a561010161010660008154811061251057612510612fd0565b90600052602060002001548154811061252b5761252b612fd0565b9060005260206000209060040201600301546101016101066001610106805490506125569190612e14565b8154811061256657612566612fd0565b90600052602060002001548154811061258157612581612fd0565b906000526020600020906004020160030154600182811c82821c0192909116160190565b61010a80546001818101835560009283527fc588bd85af64879c0999911852d2549e38c750e7e4e194eb8891b0913e93b12c9091018390556101085492935090916125f09190612e14565b6001610108546126009190612e14565b61260a9084612e41565b60016101085461261a9190612e14565b6126249088612e41565b61262e9190612dfc565b6126389190612e41565b9050610101610106828154811061265157612651612fd0565b90600052602060002001548154811061266c5761266c612fd0565b90600052602060002090600402016000015461010160fd548154811061269457612694612fd0565b9060005260206000209060040201600001546040516020016126c0929190918252602082015260400190565b6040516020818303038152906040528051906020012092507f7b4293207493837f08690beff4c164f645f39cc305a20eff9743cd85e1b72f0e610106828154811061270d5761270d612fd0565b6000918252602091829020015460fd5460408051928352928201520160405180910390a161010980546001810182556000919091527fd7f48d1c2d4fdcceabee32a4fd1437f382c65f0f9af09a878c95c20147dc06a80181905560fd5461010180546127d792309291811061278457612784612fd0565b906000526020600020906004020160020160009054906101000a90046001600160a01b03168561010160fd54815481106127c0576127c0612fd0565b9060005260206000209060040201600101546129b8565b506000610102600061010160fd54815481106127f5576127f5612fd0565b9060005260206000209060040201600001548152602001908152602001600020905083816002018190555060fd600081548092919061283390612fb5565b909155505061010680546000919061284d90600190612e14565b8154811061285d5761285d612fd0565b90600052602060002001549050610106838154811061287e5761287e612fd0565b600091825260209091200154610106805461289b90600190612e14565b815481106128ab576128ab612fd0565b90600052602060002001819055508061010684815481106128ce576128ce612fd0565b6000918252602090912001556101068054806128ec576128ec613016565b600190038181906000526020600020016000905590555050505092915050565b6060831561291b575081610a6b565b82511561292b5782518084602001fd5b8160405162461bcd60e51b81526004016102689190612b56565b82818151811061295757612957612fd0565b602002602001015183838151811061297157612971612fd0565b602002602001015184848151811061298b5761298b612fd0565b602002602001018584815181106129a4576129a4612fd0565b602090810291909101019190915252505050565b6000818152610104602052604081206129e786866129e26129d7610c92565b8554610cc390611ac6565b611744565b6040518481527fa9c0b090dee2ff09b343510632a695f8f43912cfcee1bba7dbb38b23102e28809060200160405180910390a150600195945050505050565b5080546000825590600052602060002090810190610b0d9190612ac8565b828054612a5090612d76565b90600052602060002090601f016020900481019282612a725760008555612ab8565b82601f10612a8b57805160ff1916838001178555612ab8565b82800160010185558215612ab8579182015b82811115612ab8578251825591602001919060010190612a9d565b50612ac4929150612ac8565b5090565b5b80821115612ac45760008155600101612ac9565b6020808252601f908201527f4e6f7420616c6c6f772072652d656e7472616e63792c20547279204167696e00604082015260600190565b634e487b7160e01b600052600160045260246000fd5b60005b83811015612b45578181015183820152602001612b2d565b8381111561190e5750506000910152565b6020815260008251806020840152612b75816040850160208701612b2a565b601f01601f19169190910160400192915050565b6001600160a01b0381168114610b0d57600080fd5b60008060408385031215612bb157600080fd5b8235612bbc81612b89565b946020939093013593505050565b600080600060608486031215612bdf57600080fd5b8335612bea81612b89565b92506020840135612bfa81612b89565b929592945050506040919091013590565b600060208284031215612c1d57600080fd5b5035919050565b600060208284031215612c3657600080fd5b8135610a6b81612b89565b60008060408385031215612c5457600080fd5b50508035926020909101359150565b634e487b7160e01b600052604160045260246000fd5b60008060408385031215612c8c57600080fd5b8235612c9781612b89565b9150602083013567ffffffffffffffff80821115612cb457600080fd5b818501915085601f830112612cc857600080fd5b813581811115612cda57612cda612c63565b604051601f8201601f19908116603f01168101908382118183101715612d0257612d02612c63565b81604052828152886020848701011115612d1b57600080fd5b8260208601602083013760006020848301015280955050505050509250929050565b60008060408385031215612d5057600080fd5b8235612d5b81612b89565b91506020830135612d6b81612b89565b809150509250929050565b600181811c90821680612d8a57607f821691505b60208210811415612dab57634e487b7160e01b600052602260045260246000fd5b50919050565b6020808252818101527f4f776e61626c653a2063616c6c6572206973206e6f7420746865206f776e6572604082015260600190565b634e487b7160e01b600052601160045260246000fd5b60008219821115612e0f57612e0f612de6565b500190565b600082821015612e2657612e26612de6565b500390565b634e487b7160e01b600052601260045260246000fd5b600082612e5057612e50612e2b565b500690565b6020808252602e908201527f496e697469616c697a61626c653a20636f6e747261637420697320616c72656160408201526d191e481a5b9a5d1a585b1a5e995960921b606082015260800190565b600181815b80851115612ede578160001904821115612ec457612ec4612de6565b80851615612ed157918102915b93841c9390800290612ea8565b509250929050565b600082612ef5575060016109c0565b81612f02575060006109c0565b8160018114612f185760028114612f2257612f3e565b60019150506109c0565b60ff841115612f3357612f33612de6565b50506001821b6109c0565b5060208310610133831016604e8410600b8410161715612f61575081810a6109c0565b612f6b8383612ea3565b8060001904821115612f7f57612f7f612de6565b029392505050565b6000610a6b60ff841683612ee6565b6000816000190483118215151615612fb057612fb0612de6565b500290565b6000600019821415612fc957612fc9612de6565b5060010190565b634e487b7160e01b600052603260045260246000fd5b600082612ff557612ff5612e2b565b500490565b6000825161300c818460208701612b2a565b9190910192915050565b634e487b7160e01b600052603160045260246000fdfe416464726573733a206c6f772d6c6576656c2064656c65676174652063616c6c206661696c6564a26469706673582212206e723e93d0151beb90c721063bf9f0f19fc834cdbcaacacb06c13cee546e020f64736f6c63430008090033",
			"opcodes": "PUSH1 0x80 PUSH1 0x40 MSTORE PUSH2 0x106 SLOAD PUSH2 0x107 SSTORE CALLVALUE DUP1 ISZERO PUSH2 0x18 JUMPI PUSH1 0x0 DUP1 REVERT JUMPDEST POP PUSH2 0x3089 DUP1 PUSH2 0x28 PUSH1 0x0 CODECOPY PUSH1 0x0 RETURN INVALID PUSH1 0x80 PUSH1 0x40 MSTORE PUSH1 0x4 CALLDATASIZE LT PUSH2 0x23F JUMPI PUSH1 0x0 CALLDATALOAD PUSH1 0xE0 SHR DUP1 PUSH4 0x69DDCB1B GT PUSH2 0x12E JUMPI DUP1 PUSH4 0xA45CDBF0 GT PUSH2 0xAB JUMPI DUP1 PUSH4 0xD56AC1A1 GT PUSH2 0x6F JUMPI DUP1 PUSH4 0xD56AC1A1 EQ PUSH2 0x85C JUMPI DUP1 PUSH4 0xDD0E5DA5 EQ PUSH2 0x873 JUMPI DUP1 PUSH4 0xDD62ED3E EQ PUSH2 0x8A1 JUMPI DUP1 PUSH4 0xE8E384DA EQ PUSH2 0x8E7 JUMPI DUP1 PUSH4 0xF2FDE38B EQ PUSH2 0x8FD JUMPI PUSH2 0x2F6 JUMP JUMPDEST DUP1 PUSH4 0xA45CDBF0 EQ PUSH2 0x7A1 JUMPI DUP1 PUSH4 0xA9059CBB EQ PUSH2 0x7F0 JUMPI DUP1 PUSH4 0xB6F1DE95 EQ PUSH2 0x810 JUMPI DUP1 PUSH4 0xBE4CD1A3 EQ PUSH2 0x826 JUMPI DUP1 PUSH4 0xC08D6F58 EQ PUSH2 0x83C JUMPI PUSH2 0x2F6 JUMP JUMPDEST DUP1 PUSH4 0x7A682010 GT PUSH2 0xF2 JUMPI DUP1 PUSH4 0x7A682010 EQ PUSH2 0x70F JUMPI DUP1 PUSH4 0x8129FC1C EQ PUSH2 0x72F JUMPI DUP1 PUSH4 0x8DA5CB5B EQ PUSH2 0x744 JUMPI DUP1 PUSH4 0x95D89B41 EQ PUSH2 0x76C JUMPI DUP1 PUSH4 0xA457C2D7 EQ PUSH2 0x781 JUMPI PUSH2 0x2F6 JUMP JUMPDEST DUP1 PUSH4 0x69DDCB1B EQ PUSH2 0x664 JUMPI DUP1 PUSH4 0x6D895022 EQ PUSH2 0x684 JUMPI DUP1 PUSH4 0x70A08231 EQ PUSH2 0x6A4 JUMPI DUP1 PUSH4 0x715018A6 EQ PUSH2 0x6DA JUMPI DUP1 PUSH4 0x758FD17E EQ PUSH2 0x6EF JUMPI PUSH2 0x2F6 JUMP JUMPDEST DUP1 PUSH4 0x3659CFE6 GT PUSH2 0x1BC JUMPI DUP1 PUSH4 0x4F1EF286 GT PUSH2 0x180 JUMPI DUP1 PUSH4 0x4F1EF286 EQ PUSH2 0x5E9 JUMPI DUP1 PUSH4 0x57D3EB2B EQ PUSH2 0x5FC JUMPI DUP1 PUSH4 0x58784076 EQ PUSH2 0x61C JUMPI DUP1 PUSH4 0x5EEB6710 EQ PUSH2 0x62F JUMPI DUP1 PUSH4 0x68F87159 EQ PUSH2 0x644 JUMPI PUSH2 0x2F6 JUMP JUMPDEST DUP1 PUSH4 0x3659CFE6 EQ PUSH2 0x4F1 JUMPI DUP1 PUSH4 0x39509351 EQ PUSH2 0x511 JUMPI DUP1 PUSH4 0x3BBEA80D EQ PUSH2 0x531 JUMPI DUP1 PUSH4 0x3C268FA9 EQ PUSH2 0x58C JUMPI DUP1 PUSH4 0x3DDBDA30 EQ PUSH2 0x5A2 JUMPI PUSH2 0x2F6 JUMP JUMPDEST DUP1 PUSH4 0x1CC4A4F6 GT PUSH2 0x203 JUMPI DUP1 PUSH4 0x1CC4A4F6 EQ PUSH2 0x41D JUMPI DUP1 PUSH4 0x23B872DD EQ PUSH2 0x433 JUMPI DUP1 PUSH4 0x27F25EE1 EQ PUSH2 0x453 JUMPI DUP1 PUSH4 0x2DFE9942 EQ PUSH2 0x475 JUMPI DUP1 PUSH4 0x313CE567 EQ PUSH2 0x4D5 JUMPI PUSH2 0x2F6 JUMP JUMPDEST DUP1 PUSH4 0x6FDDE03 EQ PUSH2 0x371 JUMPI DUP1 PUSH4 0x95EA7B3 EQ PUSH2 0x39C JUMPI DUP1 PUSH4 0xB563364 EQ PUSH2 0x3CC JUMPI DUP1 PUSH4 0xE63B00D EQ PUSH2 0x3F1 JUMPI DUP1 PUSH4 0x18160DDD EQ PUSH2 0x408 JUMPI PUSH2 0x2F6 JUMP JUMPDEST CALLDATASIZE PUSH2 0x2F6 JUMPI PUSH2 0x100 SLOAD PUSH1 0xFF AND ISZERO PUSH2 0x271 JUMPI PUSH1 0x40 MLOAD PUSH3 0x461BCD PUSH1 0xE5 SHL DUP2 MSTORE PUSH1 0x4 ADD PUSH2 0x268 SWAP1 PUSH2 0x2ADD JUMP JUMPDEST PUSH1 0x40 MLOAD DUP1 SWAP2 SUB SWAP1 REVERT JUMPDEST PUSH2 0x100 SLOAD PUSH1 0xFF AND ISZERO PUSH2 0x285 JUMPI PUSH2 0x285 PUSH2 0x2B14 JUMP JUMPDEST PUSH2 0x100 DUP1 SLOAD PUSH1 0xFF NOT AND PUSH1 0x1 OR SWAP1 SSTORE PUSH1 0x40 DUP1 MLOAD PUSH1 0x2A DUP2 MSTORE CALLER PUSH1 0x20 DUP3 ADD MSTORE CALLVALUE SWAP2 DUP2 ADD SWAP2 SWAP1 SWAP2 MSTORE PUSH1 0x1 PUSH1 0x1 PUSH1 0xE0 SHL SUB NOT PUSH1 0x0 CALLDATALOAD AND PUSH1 0x60 DUP3 ADD MSTORE PUSH32 0x790834C3BC81E28B2A15D8D38CC0FF83412AC8AD396D299AE40D338A9F45BFE8 SWAP1 PUSH1 0x80 ADD JUMPDEST PUSH1 0x40 MLOAD DUP1 SWAP2 SUB SWAP1 LOG1 PUSH2 0x100 DUP1 SLOAD PUSH1 0xFF NOT AND SWAP1 SSTORE STOP JUMPDEST PUSH2 0x100 SLOAD PUSH1 0xFF AND ISZERO PUSH2 0x31A JUMPI PUSH1 0x40 MLOAD PUSH3 0x461BCD PUSH1 0xE5 SHL DUP2 MSTORE PUSH1 0x4 ADD PUSH2 0x268 SWAP1 PUSH2 0x2ADD JUMP JUMPDEST PUSH2 0x100 SLOAD PUSH1 0xFF AND ISZERO PUSH2 0x32E JUMPI PUSH2 0x32E PUSH2 0x2B14 JUMP JUMPDEST PUSH2 0x100 DUP1 SLOAD PUSH1 0xFF NOT AND PUSH1 0x1 OR SWAP1 SSTORE PUSH1 0x40 DUP1 MLOAD CALLER DUP2 MSTORE CALLVALUE PUSH1 0x20 DUP3 ADD MSTORE PUSH32 0x395974AFF5F94DF364C25825392C2022AFB65310E910502D6B79549912CAA33F SWAP2 ADD PUSH2 0x2E1 JUMP JUMPDEST CALLVALUE DUP1 ISZERO PUSH2 0x37D JUMPI PUSH1 0x0 DUP1 REVERT JUMPDEST POP PUSH2 0x386 PUSH2 0x91D JUMP JUMPDEST PUSH1 0x40 MLOAD PUSH2 0x393 SWAP2 SWAP1 PUSH2 0x2B56 JUMP JUMPDEST PUSH1 0x40 MLOAD DUP1 SWAP2 SUB SWAP1 RETURN JUMPDEST CALLVALUE DUP1 ISZERO PUSH2 0x3A8 JUMPI PUSH1 0x0 DUP1 REVERT JUMPDEST POP PUSH2 0x3BC PUSH2 0x3B7 CALLDATASIZE PUSH1 0x4 PUSH2 0x2B9E JUMP JUMPDEST PUSH2 0x9AF JUMP JUMPDEST PUSH1 0x40 MLOAD SWAP1 ISZERO ISZERO DUP2 MSTORE PUSH1 0x20 ADD PUSH2 0x393 JUMP JUMPDEST CALLVALUE DUP1 ISZERO PUSH2 0x3D8 JUMPI PUSH1 0x0 DUP1 REVERT JUMPDEST POP PUSH2 0x3E3 PUSH2 0x107 SLOAD DUP2 JUMP JUMPDEST PUSH1 0x40 MLOAD SWAP1 DUP2 MSTORE PUSH1 0x20 ADD PUSH2 0x393 JUMP JUMPDEST CALLVALUE DUP1 ISZERO PUSH2 0x3FD JUMPI PUSH1 0x0 DUP1 REVERT JUMPDEST POP PUSH2 0x3E3 PUSH2 0x108 SLOAD DUP2 JUMP JUMPDEST CALLVALUE DUP1 ISZERO PUSH2 0x414 JUMPI PUSH1 0x0 DUP1 REVERT JUMPDEST POP PUSH1 0x35 SLOAD PUSH2 0x3E3 JUMP JUMPDEST CALLVALUE DUP1 ISZERO PUSH2 0x429 JUMPI PUSH1 0x0 DUP1 REVERT JUMPDEST POP PUSH2 0x3E3 PUSH1 0xFE SLOAD DUP2 JUMP JUMPDEST CALLVALUE DUP1 ISZERO PUSH2 0x43F JUMPI PUSH1 0x0 DUP1 REVERT JUMPDEST POP PUSH2 0x3BC PUSH2 0x44E CALLDATASIZE PUSH1 0x4 PUSH2 0x2BCA JUMP JUMPDEST PUSH2 0x9C6 JUMP JUMPDEST CALLVALUE DUP1 ISZERO PUSH2 0x45F JUMPI PUSH1 0x0 DUP1 REVERT JUMPDEST POP PUSH2 0x473 PUSH2 0x46E CALLDATASIZE PUSH1 0x4 PUSH2 0x2C0B JUMP JUMPDEST PUSH2 0xA72 JUMP JUMPDEST STOP JUMPDEST CALLVALUE DUP1 ISZERO PUSH2 0x481 JUMPI PUSH1 0x0 DUP1 REVERT JUMPDEST POP PUSH2 0x4B6 PUSH2 0x490 CALLDATASIZE PUSH1 0x4 PUSH2 0x2C24 JUMP JUMPDEST PUSH2 0x103 PUSH1 0x20 MSTORE PUSH1 0x0 SWAP1 DUP2 MSTORE PUSH1 0x40 SWAP1 KECCAK256 DUP1 SLOAD PUSH1 0x1 SWAP1 SWAP2 ADD SLOAD PUSH1 0x1 PUSH1 0x1 PUSH1 0xA0 SHL SUB SWAP1 SWAP2 AND SWAP1 DUP3 JUMP JUMPDEST PUSH1 0x40 DUP1 MLOAD PUSH1 0x1 PUSH1 0x1 PUSH1 0xA0 SHL SUB SWAP1 SWAP4 AND DUP4 MSTORE PUSH1 0x20 DUP4 ADD SWAP2 SWAP1 SWAP2 MSTORE ADD PUSH2 0x393 JUMP JUMPDEST CALLVALUE DUP1 ISZERO PUSH2 0x4E1 JUMPI PUSH1 0x0 DUP1 REVERT JUMPDEST POP PUSH1 0x40 MLOAD PUSH1 0x12 DUP2 MSTORE PUSH1 0x20 ADD PUSH2 0x393 JUMP JUMPDEST CALLVALUE DUP1 ISZERO PUSH2 0x4FD JUMPI PUSH1 0x0 DUP1 REVERT JUMPDEST POP PUSH2 0x473 PUSH2 0x50C CALLDATASIZE PUSH1 0x4 PUSH2 0x2C24 JUMP JUMPDEST PUSH2 0xAE9 JUMP JUMPDEST CALLVALUE DUP1 ISZERO PUSH2 0x51D JUMPI PUSH1 0x0 DUP1 REVERT JUMPDEST POP PUSH2 0x3BC PUSH2 0x52C CALLDATASIZE PUSH1 0x4 PUSH2 0x2B9E JUMP JUMPDEST PUSH2 0xB10 JUMP JUMPDEST CALLVALUE DUP1 ISZERO PUSH2 0x53D JUMPI PUSH1 0x0 DUP1 REVERT JUMPDEST POP PUSH2 0x571 PUSH2 0x54C CALLDATASIZE PUSH1 0x4 PUSH2 0x2C0B JUMP JUMPDEST PUSH2 0x102 PUSH1 0x20 MSTORE PUSH1 0x0 SWAP1 DUP2 MSTORE PUSH1 0x40 SWAP1 KECCAK256 DUP1 SLOAD PUSH1 0x1 DUP3 ADD SLOAD PUSH1 0x2 SWAP1 SWAP3 ADD SLOAD SWAP1 SWAP2 PUSH1 0xFF AND SWAP1 DUP4 JUMP JUMPDEST PUSH1 0x40 DUP1 MLOAD SWAP4 DUP5 MSTORE SWAP2 ISZERO ISZERO PUSH1 0x20 DUP5 ADD MSTORE SWAP1 DUP3 ADD MSTORE PUSH1 0x60 ADD PUSH2 0x393 JUMP JUMPDEST CALLVALUE DUP1 ISZERO PUSH2 0x598 JUMPI PUSH1 0x0 DUP1 REVERT JUMPDEST POP PUSH2 0x3E3 PUSH1 0xFD SLOAD DUP2 JUMP JUMPDEST CALLVALUE DUP1 ISZERO PUSH2 0x5AE JUMPI PUSH1 0x0 DUP1 REVERT JUMPDEST POP PUSH2 0x3E3 PUSH2 0x5BD CALLDATASIZE PUSH1 0x4 PUSH2 0x2C41 JUMP JUMPDEST PUSH1 0x40 DUP1 MLOAD PUSH1 0x20 DUP1 DUP3 ADD SWAP5 SWAP1 SWAP5 MSTORE DUP1 DUP3 ADD SWAP3 SWAP1 SWAP3 MSTORE DUP1 MLOAD DUP1 DUP4 SUB DUP3 ADD DUP2 MSTORE PUSH1 0x60 SWAP1 SWAP3 ADD SWAP1 MSTORE DUP1 MLOAD SWAP2 ADD KECCAK256 SWAP1 JUMP JUMPDEST PUSH2 0x473 PUSH2 0x5F7 CALLDATASIZE PUSH1 0x4 PUSH2 0x2C79 JUMP JUMPDEST PUSH2 0xB4C JUMP JUMPDEST CALLVALUE DUP1 ISZERO PUSH2 0x608 JUMPI PUSH1 0x0 DUP1 REVERT JUMPDEST POP PUSH2 0x473 PUSH2 0x617 CALLDATASIZE PUSH1 0x4 PUSH2 0x2B9E JUMP JUMPDEST PUSH2 0xB65 JUMP JUMPDEST PUSH2 0x473 PUSH2 0x62A CALLDATASIZE PUSH1 0x4 PUSH2 0x2C0B JUMP JUMPDEST PUSH2 0xC1B JUMP JUMPDEST CALLVALUE DUP1 ISZERO PUSH2 0x63B JUMPI PUSH1 0x0 DUP1 REVERT JUMPDEST POP PUSH2 0x3E3 PUSH2 0xC92 JUMP JUMPDEST CALLVALUE DUP1 ISZERO PUSH2 0x650 JUMPI PUSH1 0x0 DUP1 REVERT JUMPDEST POP PUSH2 0x3E3 PUSH2 0x65F CALLDATASIZE PUSH1 0x4 PUSH2 0x2C0B JUMP JUMPDEST PUSH2 0xCFF JUMP JUMPDEST CALLVALUE DUP1 ISZERO PUSH2 0x670 JUMPI PUSH1 0x0 DUP1 REVERT JUMPDEST POP PUSH2 0x473 PUSH2 0x67F CALLDATASIZE PUSH1 0x4 PUSH2 0x2C0B JUMP JUMPDEST PUSH2 0xD21 JUMP JUMPDEST CALLVALUE DUP1 ISZERO PUSH2 0x690 JUMPI PUSH1 0x0 DUP1 REVERT JUMPDEST POP PUSH2 0x3E3 PUSH2 0x69F CALLDATASIZE PUSH1 0x4 PUSH2 0x2C0B JUMP JUMPDEST PUSH2 0xE20 JUMP JUMPDEST CALLVALUE DUP1 ISZERO PUSH2 0x6B0 JUMPI PUSH1 0x0 DUP1 REVERT JUMPDEST POP PUSH2 0x3E3 PUSH2 0x6BF CALLDATASIZE PUSH1 0x4 PUSH2 0x2C24 JUMP JUMPDEST PUSH1 0x1 PUSH1 0x1 PUSH1 0xA0 SHL SUB AND PUSH1 0x0 SWAP1 DUP2 MSTORE PUSH1 0x33 PUSH1 0x20 MSTORE PUSH1 0x40 SWAP1 KECCAK256 SLOAD SWAP1 JUMP JUMPDEST CALLVALUE DUP1 ISZERO PUSH2 0x6E6 JUMPI PUSH1 0x0 DUP1 REVERT JUMPDEST POP PUSH2 0x473 PUSH2 0xE31 JUMP JUMPDEST CALLVALUE DUP1 ISZERO PUSH2 0x6FB JUMPI PUSH1 0x0 DUP1 REVERT JUMPDEST POP PUSH2 0x473 PUSH2 0x70A CALLDATASIZE PUSH1 0x4 PUSH2 0x2C0B JUMP JUMPDEST PUSH2 0xE67 JUMP JUMPDEST CALLVALUE DUP1 ISZERO PUSH2 0x71B JUMPI PUSH1 0x0 DUP1 REVERT JUMPDEST POP PUSH2 0x3E3 PUSH2 0x72A CALLDATASIZE PUSH1 0x4 PUSH2 0x2C0B JUMP JUMPDEST PUSH2 0xEDF JUMP JUMPDEST CALLVALUE DUP1 ISZERO PUSH2 0x73B JUMPI PUSH1 0x0 DUP1 REVERT JUMPDEST POP PUSH2 0x473 PUSH2 0xEF0 JUMP JUMPDEST CALLVALUE DUP1 ISZERO PUSH2 0x750 JUMPI PUSH1 0x0 DUP1 REVERT JUMPDEST POP PUSH1 0x65 SLOAD PUSH1 0x40 MLOAD PUSH1 0x1 PUSH1 0x1 PUSH1 0xA0 SHL SUB SWAP1 SWAP2 AND DUP2 MSTORE PUSH1 0x20 ADD PUSH2 0x393 JUMP JUMPDEST CALLVALUE DUP1 ISZERO PUSH2 0x778 JUMPI PUSH1 0x0 DUP1 REVERT JUMPDEST POP PUSH2 0x386 PUSH2 0x10F7 JUMP JUMPDEST CALLVALUE DUP1 ISZERO PUSH2 0x78D JUMPI PUSH1 0x0 DUP1 REVERT JUMPDEST POP PUSH2 0x3BC PUSH2 0x79C CALLDATASIZE PUSH1 0x4 PUSH2 0x2B9E JUMP JUMPDEST PUSH2 0x1106 JUMP JUMPDEST CALLVALUE DUP1 ISZERO PUSH2 0x7AD JUMPI PUSH1 0x0 DUP1 REVERT JUMPDEST POP PUSH2 0x7C1 PUSH2 0x7BC CALLDATASIZE PUSH1 0x4 PUSH2 0x2C0B JUMP JUMPDEST PUSH2 0x119F JUMP JUMPDEST PUSH1 0x40 MLOAD PUSH2 0x393 SWAP5 SWAP4 SWAP3 SWAP2 SWAP1 SWAP4 DUP5 MSTORE PUSH1 0x20 DUP5 ADD SWAP3 SWAP1 SWAP3 MSTORE PUSH1 0x1 PUSH1 0x1 PUSH1 0xA0 SHL SUB AND PUSH1 0x40 DUP4 ADD MSTORE PUSH1 0x60 DUP3 ADD MSTORE PUSH1 0x80 ADD SWAP1 JUMP JUMPDEST CALLVALUE DUP1 ISZERO PUSH2 0x7FC JUMPI PUSH1 0x0 DUP1 REVERT JUMPDEST POP PUSH2 0x3BC PUSH2 0x80B CALLDATASIZE PUSH1 0x4 PUSH2 0x2B9E JUMP JUMPDEST PUSH2 0x11E3 JUMP JUMPDEST CALLVALUE DUP1 ISZERO PUSH2 0x81C JUMPI PUSH1 0x0 DUP1 REVERT JUMPDEST POP PUSH2 0x3E3 PUSH1 0xFC SLOAD DUP2 JUMP JUMPDEST CALLVALUE DUP1 ISZERO PUSH2 0x832 JUMPI PUSH1 0x0 DUP1 REVERT JUMPDEST POP PUSH2 0x3E3 PUSH1 0xFF SLOAD DUP2 JUMP JUMPDEST CALLVALUE DUP1 ISZERO PUSH2 0x848 JUMPI PUSH1 0x0 DUP1 REVERT JUMPDEST POP PUSH2 0x473 PUSH2 0x857 CALLDATASIZE PUSH1 0x4 PUSH2 0x2C0B JUMP JUMPDEST PUSH2 0x11F0 JUMP JUMPDEST CALLVALUE DUP1 ISZERO PUSH2 0x868 JUMPI PUSH1 0x0 DUP1 REVERT JUMPDEST POP PUSH2 0x3E3 PUSH2 0x10B SLOAD DUP2 JUMP JUMPDEST CALLVALUE DUP1 ISZERO PUSH2 0x87F JUMPI PUSH1 0x0 DUP1 REVERT JUMPDEST POP PUSH2 0x3E3 PUSH2 0x88E CALLDATASIZE PUSH1 0x4 PUSH2 0x2C0B JUMP JUMPDEST PUSH2 0x104 PUSH1 0x20 MSTORE PUSH1 0x0 SWAP1 DUP2 MSTORE PUSH1 0x40 SWAP1 KECCAK256 SLOAD DUP2 JUMP JUMPDEST CALLVALUE DUP1 ISZERO PUSH2 0x8AD JUMPI PUSH1 0x0 DUP1 REVERT JUMPDEST POP PUSH2 0x3E3 PUSH2 0x8BC CALLDATASIZE PUSH1 0x4 PUSH2 0x2D3D JUMP JUMPDEST PUSH1 0x1 PUSH1 0x1 PUSH1 0xA0 SHL SUB SWAP2 DUP3 AND PUSH1 0x0 SWAP1 DUP2 MSTORE PUSH1 0x34 PUSH1 0x20 SWAP1 DUP2 MSTORE PUSH1 0x40 DUP1 DUP4 KECCAK256 SWAP4 SWAP1 SWAP5 AND DUP3 MSTORE SWAP2 SWAP1 SWAP2 MSTORE KECCAK256 SLOAD SWAP1 JUMP JUMPDEST CALLVALUE DUP1 ISZERO PUSH2 0x8F3 JUMPI PUSH1 0x0 DUP1 REVERT JUMPDEST POP PUSH2 0x3E3 PUSH1 0xFB SLOAD DUP2 JUMP JUMPDEST CALLVALUE DUP1 ISZERO PUSH2 0x909 JUMPI PUSH1 0x0 DUP1 REVERT JUMPDEST POP PUSH2 0x473 PUSH2 0x918 CALLDATASIZE PUSH1 0x4 PUSH2 0x2C24 JUMP JUMPDEST PUSH2 0x1588 JUMP JUMPDEST PUSH1 0x60 PUSH1 0x36 DUP1 SLOAD PUSH2 0x92C SWAP1 PUSH2 0x2D76 JUMP JUMPDEST DUP1 PUSH1 0x1F ADD PUSH1 0x20 DUP1 SWAP2 DIV MUL PUSH1 0x20 ADD PUSH1 0x40 MLOAD SWAP1 DUP2 ADD PUSH1 0x40 MSTORE DUP1 SWAP3 SWAP2 SWAP1 DUP2 DUP2 MSTORE PUSH1 0x20 ADD DUP3 DUP1 SLOAD PUSH2 0x958 SWAP1 PUSH2 0x2D76 JUMP JUMPDEST DUP1 ISZERO PUSH2 0x9A5 JUMPI DUP1 PUSH1 0x1F LT PUSH2 0x97A JUMPI PUSH2 0x100 DUP1 DUP4 SLOAD DIV MUL DUP4 MSTORE SWAP2 PUSH1 0x20 ADD SWAP2 PUSH2 0x9A5 JUMP JUMPDEST DUP3 ADD SWAP2 SWAP1 PUSH1 0x0 MSTORE PUSH1 0x20 PUSH1 0x0 KECCAK256 SWAP1 JUMPDEST DUP2 SLOAD DUP2 MSTORE SWAP1 PUSH1 0x1 ADD SWAP1 PUSH1 0x20 ADD DUP1 DUP4 GT PUSH2 0x988 JUMPI DUP3 SWAP1 SUB PUSH1 0x1F AND DUP3 ADD SWAP2 JUMPDEST POP POP POP POP POP SWAP1 POP SWAP1 JUMP JUMPDEST PUSH1 0x0 PUSH2 0x9BC CALLER DUP5 DUP5 PUSH2 0x1620 JUMP JUMPDEST POP PUSH1 0x1 JUMPDEST SWAP3 SWAP2 POP POP JUMP JUMPDEST PUSH1 0x0 PUSH2 0x9D3 DUP5 DUP5 DUP5 PUSH2 0x1744 JUMP JUMPDEST PUSH1 0x1 PUSH1 0x1 PUSH1 0xA0 SHL SUB DUP5 AND PUSH1 0x0 SWAP1 DUP2 MSTORE PUSH1 0x34 PUSH1 0x20 SWAP1 DUP2 MSTORE PUSH1 0x40 DUP1 DUP4 KECCAK256 CALLER DUP5 MSTORE SWAP1 SWAP2 MSTORE SWAP1 KECCAK256 SLOAD DUP3 DUP2 LT ISZERO PUSH2 0xA58 JUMPI PUSH1 0x40 MLOAD PUSH3 0x461BCD PUSH1 0xE5 SHL DUP2 MSTORE PUSH1 0x20 PUSH1 0x4 DUP3 ADD MSTORE PUSH1 0x28 PUSH1 0x24 DUP3 ADD MSTORE PUSH32 0x45524332303A207472616E7366657220616D6F756E7420657863656564732061 PUSH1 0x44 DUP3 ADD MSTORE PUSH8 0x6C6C6F77616E6365 PUSH1 0xC0 SHL PUSH1 0x64 DUP3 ADD MSTORE PUSH1 0x84 ADD PUSH2 0x268 JUMP JUMPDEST PUSH2 0xA65 DUP6 CALLER DUP6 DUP5 SUB PUSH2 0x1620 JUMP JUMPDEST PUSH1 0x1 SWAP2 POP POP JUMPDEST SWAP4 SWAP3 POP POP POP JUMP JUMPDEST PUSH1 0x65 SLOAD PUSH1 0x1 PUSH1 0x1 PUSH1 0xA0 SHL SUB AND CALLER EQ PUSH2 0xA9C JUMPI PUSH1 0x40 MLOAD PUSH3 0x461BCD PUSH1 0xE5 SHL DUP2 MSTORE PUSH1 0x4 ADD PUSH2 0x268 SWAP1 PUSH2 0x2DB1 JUMP JUMPDEST PUSH2 0x100 SLOAD PUSH1 0xFF AND ISZERO PUSH2 0xAC0 JUMPI PUSH1 0x40 MLOAD PUSH3 0x461BCD PUSH1 0xE5 SHL DUP2 MSTORE PUSH1 0x4 ADD PUSH2 0x268 SWAP1 PUSH2 0x2ADD JUMP JUMPDEST PUSH2 0x100 SLOAD PUSH1 0xFF AND ISZERO PUSH2 0xAD4 JUMPI PUSH2 0xAD4 PUSH2 0x2B14 JUMP JUMPDEST PUSH2 0x100 DUP1 SLOAD PUSH1 0xFE SWAP3 SWAP1 SWAP3 SSTORE PUSH1 0xFF NOT SWAP1 SWAP2 AND SWAP1 SSTORE JUMP JUMPDEST PUSH2 0xAF2 DUP2 PUSH2 0x1914 JUMP JUMPDEST PUSH2 0xB0D DUP2 PUSH1 0x40 MLOAD DUP1 PUSH1 0x20 ADD PUSH1 0x40 MSTORE DUP1 PUSH1 0x0 DUP2 MSTORE POP PUSH1 0x0 PUSH2 0x193E JUMP JUMPDEST POP JUMP JUMPDEST CALLER PUSH1 0x0 DUP2 DUP2 MSTORE PUSH1 0x34 PUSH1 0x20 SWAP1 DUP2 MSTORE PUSH1 0x40 DUP1 DUP4 KECCAK256 PUSH1 0x1 PUSH1 0x1 PUSH1 0xA0 SHL SUB DUP8 AND DUP5 MSTORE SWAP1 SWAP2 MSTORE DUP2 KECCAK256 SLOAD SWAP1 SWAP2 PUSH2 0x9BC SWAP2 DUP6 SWAP1 PUSH2 0xB47 SWAP1 DUP7 SWAP1 PUSH2 0x2DFC JUMP JUMPDEST PUSH2 0x1620 JUMP JUMPDEST PUSH2 0xB55 DUP3 PUSH2 0x1914 JUMP JUMPDEST PUSH2 0xB61 DUP3 DUP3 PUSH1 0x1 PUSH2 0x193E JUMP JUMPDEST POP POP JUMP JUMPDEST PUSH1 0x65 SLOAD PUSH1 0x1 PUSH1 0x1 PUSH1 0xA0 SHL SUB AND CALLER EQ PUSH2 0xB8F JUMPI PUSH1 0x40 MLOAD PUSH3 0x461BCD PUSH1 0xE5 SHL DUP2 MSTORE PUSH1 0x4 ADD PUSH2 0x268 SWAP1 PUSH2 0x2DB1 JUMP JUMPDEST PUSH2 0x100 SLOAD PUSH1 0xFF AND ISZERO PUSH2 0xBB3 JUMPI PUSH1 0x40 MLOAD PUSH3 0x461BCD PUSH1 0xE5 SHL DUP2 MSTORE PUSH1 0x4 ADD PUSH2 0x268 SWAP1 PUSH2 0x2ADD JUMP JUMPDEST PUSH2 0x100 SLOAD PUSH1 0xFF AND ISZERO PUSH2 0xBC7 JUMPI PUSH2 0xBC7 PUSH2 0x2B14 JUMP JUMPDEST PUSH2 0x100 DUP1 SLOAD PUSH1 0xFF NOT AND PUSH1 0x1 OR SWAP1 SSTORE PUSH1 0x40 MLOAD PUSH1 0x1 PUSH1 0x1 PUSH1 0xA0 SHL SUB DUP4 AND SWAP1 DUP3 ISZERO PUSH2 0x8FC MUL SWAP1 DUP4 SWAP1 PUSH1 0x0 DUP2 DUP2 DUP2 DUP6 DUP9 DUP9 CALL SWAP4 POP POP POP POP ISZERO DUP1 ISZERO PUSH2 0xC0B JUMPI RETURNDATASIZE PUSH1 0x0 DUP1 RETURNDATACOPY RETURNDATASIZE PUSH1 0x0 REVERT JUMPDEST POP POP PUSH2 0x100 DUP1 SLOAD PUSH1 0xFF NOT AND SWAP1 SSTORE POP JUMP JUMPDEST PUSH1 0x65 SLOAD PUSH1 0x1 PUSH1 0x1 PUSH1 0xA0 SHL SUB AND CALLER EQ PUSH2 0xC45 JUMPI PUSH1 0x40 MLOAD PUSH3 0x461BCD PUSH1 0xE5 SHL DUP2 MSTORE PUSH1 0x4 ADD PUSH2 0x268 SWAP1 PUSH2 0x2DB1 JUMP JUMPDEST PUSH2 0x100 SLOAD PUSH1 0xFF AND ISZERO PUSH2 0xC69 JUMPI PUSH1 0x40 MLOAD PUSH3 0x461BCD PUSH1 0xE5 SHL DUP2 MSTORE PUSH1 0x4 ADD PUSH2 0x268 SWAP1 PUSH2 0x2ADD JUMP JUMPDEST PUSH2 0x100 SLOAD PUSH1 0xFF AND ISZERO PUSH2 0xC7D JUMPI PUSH2 0xC7D PUSH2 0x2B14 JUMP JUMPDEST PUSH2 0x100 DUP1 SLOAD PUSH1 0xFF SWAP3 SWAP1 SWAP3 SSTORE PUSH1 0xFF NOT SWAP1 SWAP2 AND SWAP1 SSTORE JUMP JUMPDEST PUSH1 0x0 DUP1 PUSH1 0xFB SLOAD TIMESTAMP PUSH2 0xCA3 SWAP2 SWAP1 PUSH2 0x2E14 JUMP JUMPDEST SWAP1 POP PUSH1 0x0 PUSH2 0xCD6 PUSH2 0xCC8 PUSH2 0xCB6 DUP5 PUSH2 0x1AC6 JUMP JUMPDEST PUSH2 0xCC3 PUSH4 0x1E13380 PUSH2 0x1AC6 JUMP JUMPDEST PUSH2 0x1B13 JUMP JUMPDEST PUSH8 0xDE0B6B3A7640000 SWAP1 DIV SWAP1 JUMP JUMPDEST SWAP1 POP PUSH2 0xCF8 PUSH2 0xCF0 PUSH2 0xCB6 PUSH2 0xCEB DUP6 DUP6 PUSH2 0x1B28 JUMP JUMPDEST PUSH2 0x1AC6 JUMP JUMPDEST PUSH1 0xFE SLOAD PUSH2 0x1B5E JUMP JUMPDEST SWAP3 POP POP POP SWAP1 JUMP JUMPDEST PUSH2 0x109 DUP2 DUP2 SLOAD DUP2 LT PUSH2 0xD10 JUMPI PUSH1 0x0 DUP1 REVERT JUMPDEST PUSH1 0x0 SWAP2 DUP3 MSTORE PUSH1 0x20 SWAP1 SWAP2 KECCAK256 ADD SLOAD SWAP1 POP DUP2 JUMP JUMPDEST PUSH1 0x65 SLOAD PUSH1 0x1 PUSH1 0x1 PUSH1 0xA0 SHL SUB AND CALLER EQ PUSH2 0xD4B JUMPI PUSH1 0x40 MLOAD PUSH3 0x461BCD PUSH1 0xE5 SHL DUP2 MSTORE PUSH1 0x4 ADD PUSH2 0x268 SWAP1 PUSH2 0x2DB1 JUMP JUMPDEST PUSH2 0x100 SLOAD PUSH1 0xFF AND ISZERO PUSH2 0xD6F JUMPI PUSH1 0x40 MLOAD PUSH3 0x461BCD PUSH1 0xE5 SHL DUP2 MSTORE PUSH1 0x4 ADD PUSH2 0x268 SWAP1 PUSH2 0x2ADD JUMP JUMPDEST PUSH2 0x100 SLOAD PUSH1 0xFF AND ISZERO PUSH2 0xD83 JUMPI PUSH2 0xD83 PUSH2 0x2B14 JUMP JUMPDEST PUSH2 0x100 DUP1 SLOAD PUSH1 0xFF NOT AND PUSH1 0x1 OR SWAP1 SSTORE PUSH2 0x108 SLOAD DUP2 GT DUP1 ISZERO PUSH2 0xDAB JUMPI POP PUSH2 0xDA9 PUSH1 0x2 DUP3 PUSH2 0x2E41 JUMP JUMPDEST ISZERO JUMPDEST PUSH2 0xE0F JUMPI PUSH1 0x40 MLOAD PUSH3 0x461BCD PUSH1 0xE5 SHL DUP2 MSTORE PUSH1 0x20 PUSH1 0x4 DUP3 ADD MSTORE PUSH1 0x2F PUSH1 0x24 DUP3 ADD MSTORE PUSH32 0x466F726D6174696F6E4E756D6265722063616E6E6F7420626520726564756365 PUSH1 0x44 DUP3 ADD MSTORE PUSH15 0x321037B91037B23210373AB6B132B9 PUSH1 0x89 SHL PUSH1 0x64 DUP3 ADD MSTORE PUSH1 0x84 ADD PUSH2 0x268 JUMP JUMPDEST PUSH2 0x108 SSTORE PUSH2 0x100 DUP1 SLOAD PUSH1 0xFF NOT AND SWAP1 SSTORE JUMP JUMPDEST PUSH2 0x106 DUP2 DUP2 SLOAD DUP2 LT PUSH2 0xD10 JUMPI PUSH1 0x0 DUP1 REVERT JUMPDEST PUSH1 0x65 SLOAD PUSH1 0x1 PUSH1 0x1 PUSH1 0xA0 SHL SUB AND CALLER EQ PUSH2 0xE5B JUMPI PUSH1 0x40 MLOAD PUSH3 0x461BCD PUSH1 0xE5 SHL DUP2 MSTORE PUSH1 0x4 ADD PUSH2 0x268 SWAP1 PUSH2 0x2DB1 JUMP JUMPDEST PUSH2 0xE65 PUSH1 0x0 PUSH2 0x1B6A JUMP JUMPDEST JUMP JUMPDEST PUSH1 0x65 SLOAD PUSH1 0x1 PUSH1 0x1 PUSH1 0xA0 SHL SUB AND CALLER EQ PUSH2 0xE91 JUMPI PUSH1 0x40 MLOAD PUSH3 0x461BCD PUSH1 0xE5 SHL DUP2 MSTORE PUSH1 0x4 ADD PUSH2 0x268 SWAP1 PUSH2 0x2DB1 JUMP JUMPDEST PUSH2 0x100 SLOAD PUSH1 0xFF AND ISZERO PUSH2 0xEB5 JUMPI PUSH1 0x40 MLOAD PUSH3 0x461BCD PUSH1 0xE5 SHL DUP2 MSTORE PUSH1 0x4 ADD PUSH2 0x268 SWAP1 PUSH2 0x2ADD JUMP JUMPDEST PUSH2 0x100 SLOAD PUSH1 0xFF AND ISZERO PUSH2 0xEC9 JUMPI PUSH2 0xEC9 PUSH2 0x2B14 JUMP JUMPDEST PUSH2 0x100 DUP1 SLOAD PUSH2 0x10B SWAP3 SWAP1 SWAP3 SSTORE PUSH1 0xFF NOT SWAP1 SWAP2 AND SWAP1 SSTORE JUMP JUMPDEST PUSH2 0x10A DUP2 DUP2 SLOAD DUP2 LT PUSH2 0xD10 JUMPI PUSH1 0x0 DUP1 REVERT JUMPDEST PUSH1 0x0 SLOAD PUSH2 0x100 SWAP1 DIV PUSH1 0xFF AND DUP1 PUSH2 0xF09 JUMPI POP PUSH1 0x0 SLOAD PUSH1 0xFF AND ISZERO JUMPDEST PUSH2 0xF25 JUMPI PUSH1 0x40 MLOAD PUSH3 0x461BCD PUSH1 0xE5 SHL DUP2 MSTORE PUSH1 0x4 ADD PUSH2 0x268 SWAP1 PUSH2 0x2E55 JUMP JUMPDEST PUSH1 0x0 SLOAD PUSH2 0x100 SWAP1 DIV PUSH1 0xFF AND ISZERO DUP1 ISZERO PUSH2 0xF47 JUMPI PUSH1 0x0 DUP1 SLOAD PUSH2 0xFFFF NOT AND PUSH2 0x101 OR SWAP1 SSTORE JUMPDEST PUSH2 0xF8D PUSH1 0x40 MLOAD DUP1 PUSH1 0x40 ADD PUSH1 0x40 MSTORE DUP1 PUSH1 0x9 DUP2 MSTORE PUSH1 0x20 ADD PUSH9 0x456E74726F4265616D PUSH1 0xB8 SHL DUP2 MSTORE POP PUSH1 0x40 MLOAD DUP1 PUSH1 0x40 ADD PUSH1 0x40 MSTORE DUP1 PUSH1 0x3 DUP2 MSTORE PUSH1 0x20 ADD PUSH3 0x8A92B PUSH1 0xEB SHL DUP2 MSTORE POP PUSH2 0x1BBC JUMP JUMPDEST PUSH2 0xF95 PUSH2 0x1C3C JUMP JUMPDEST PUSH2 0xF9D PUSH2 0x1CB7 JUMP JUMPDEST PUSH2 0xFC0 CALLER PUSH2 0xFAD PUSH1 0x12 PUSH1 0xA PUSH2 0x2F87 JUMP JUMPDEST PUSH2 0xFBB SWAP1 PUSH4 0x3B9ACA00 PUSH2 0x2F96 JUMP JUMPDEST PUSH2 0x1D1E JUMP JUMPDEST PUSH1 0x40 DUP1 MLOAD PUSH1 0x80 DUP2 ADD DUP3 MSTORE PUSH1 0x1 DUP1 DUP3 MSTORE PUSH1 0x0 PUSH1 0x20 DUP4 ADD DUP2 DUP2 MSTORE SWAP4 DUP4 ADD DUP2 DUP2 MSTORE PUSH1 0x60 DUP5 ADD DUP3 DUP2 MSTORE PUSH2 0x101 DUP1 SLOAD DUP1 DUP7 ADD DUP3 SSTORE SWAP1 DUP5 MSTORE SWAP5 MLOAD PUSH32 0x109EA3CEBB188B9C1B9FC5BB3920BE60DFDC8699098DFF92F3D80DAACA747689 PUSH1 0x4 SWAP1 SWAP7 MUL SWAP6 DUP7 ADD SSTORE SWAP5 MLOAD PUSH32 0x109EA3CEBB188B9C1B9FC5BB3920BE60DFDC8699098DFF92F3D80DAACA74768A DUP6 ADD SSTORE MLOAD PUSH32 0x109EA3CEBB188B9C1B9FC5BB3920BE60DFDC8699098DFF92F3D80DAACA74768B DUP5 ADD DUP1 SLOAD PUSH1 0x1 PUSH1 0x1 PUSH1 0xA0 SHL SUB NOT AND PUSH1 0x1 PUSH1 0x1 PUSH1 0xA0 SHL SUB SWAP1 SWAP3 AND SWAP2 SWAP1 SWAP2 OR SWAP1 SSTORE SWAP3 MLOAD PUSH32 0x109EA3CEBB188B9C1B9FC5BB3920BE60DFDC8699098DFF92F3D80DAACA74768C SWAP1 SWAP3 ADD SWAP2 SWAP1 SWAP2 SSTORE PUSH1 0xFD SSTORE TIMESTAMP PUSH1 0xFB SSTORE PUSH1 0xD PUSH1 0xFE SSTORE PUSH2 0x10B SSTORE PUSH1 0x12 PUSH2 0x10CC SWAP1 PUSH1 0xA PUSH2 0x2F87 JUMP JUMPDEST PUSH2 0x10DA SWAP1 PUSH4 0x1C9C380 PUSH2 0x2F96 JUMP JUMPDEST PUSH1 0xFF SSTORE PUSH1 0xA PUSH2 0x108 SSTORE DUP1 ISZERO PUSH2 0xB0D JUMPI PUSH1 0x0 DUP1 SLOAD PUSH2 0xFF00 NOT AND SWAP1 SSTORE POP JUMP JUMPDEST PUSH1 0x60 PUSH1 0x37 DUP1 SLOAD PUSH2 0x92C SWAP1 PUSH2 0x2D76 JUMP JUMPDEST CALLER PUSH1 0x0 SWAP1 DUP2 MSTORE PUSH1 0x34 PUSH1 0x20 SWAP1 DUP2 MSTORE PUSH1 0x40 DUP1 DUP4 KECCAK256 PUSH1 0x1 PUSH1 0x1 PUSH1 0xA0 SHL SUB DUP7 AND DUP5 MSTORE SWAP1 SWAP2 MSTORE DUP2 KECCAK256 SLOAD DUP3 DUP2 LT ISZERO PUSH2 0x1188 JUMPI PUSH1 0x40 MLOAD PUSH3 0x461BCD PUSH1 0xE5 SHL DUP2 MSTORE PUSH1 0x20 PUSH1 0x4 DUP3 ADD MSTORE PUSH1 0x25 PUSH1 0x24 DUP3 ADD MSTORE PUSH32 0x45524332303A2064656372656173656420616C6C6F77616E63652062656C6F77 PUSH1 0x44 DUP3 ADD MSTORE PUSH5 0x207A65726F PUSH1 0xD8 SHL PUSH1 0x64 DUP3 ADD MSTORE PUSH1 0x84 ADD PUSH2 0x268 JUMP JUMPDEST PUSH2 0x1195 CALLER DUP6 DUP6 DUP5 SUB PUSH2 0x1620 JUMP JUMPDEST POP PUSH1 0x1 SWAP4 SWAP3 POP POP POP JUMP JUMPDEST PUSH2 0x101 DUP2 DUP2 SLOAD DUP2 LT PUSH2 0x11B0 JUMPI PUSH1 0x0 DUP1 REVERT JUMPDEST PUSH1 0x0 SWAP2 DUP3 MSTORE PUSH1 0x20 SWAP1 SWAP2 KECCAK256 PUSH1 0x4 SWAP1 SWAP2 MUL ADD DUP1 SLOAD PUSH1 0x1 DUP3 ADD SLOAD PUSH1 0x2 DUP4 ADD SLOAD PUSH1 0x3 SWAP1 SWAP4 ADD SLOAD SWAP2 SWAP4 POP SWAP2 PUSH1 0x1 PUSH1 0x1 PUSH1 0xA0 SHL SUB AND SWAP1 DUP5 JUMP JUMPDEST PUSH1 0x0 PUSH2 0x9BC CALLER DUP5 DUP5 PUSH2 0x1744 JUMP JUMPDEST PUSH2 0x100 SLOAD PUSH1 0xFF AND ISZERO PUSH2 0x1214 JUMPI PUSH1 0x40 MLOAD PUSH3 0x461BCD PUSH1 0xE5 SHL DUP2 MSTORE PUSH1 0x4 ADD PUSH2 0x268 SWAP1 PUSH2 0x2ADD JUMP JUMPDEST PUSH2 0x100 SLOAD PUSH1 0xFF AND ISZERO PUSH2 0x1228 JUMPI PUSH2 0x1228 PUSH2 0x2B14 JUMP JUMPDEST PUSH2 0x100 DUP1 SLOAD PUSH1 0xFF NOT AND PUSH1 0x1 OR SWAP1 SSTORE NUMBER PUSH1 0x0 SWAP1 DUP2 MSTORE PUSH2 0x104 PUSH1 0x20 MSTORE PUSH1 0x40 DUP2 KECCAK256 DUP1 SLOAD SWAP1 SWAP2 DUP3 SWAP1 PUSH2 0x1255 DUP4 PUSH2 0x2FB5 JUMP JUMPDEST SWAP2 SWAP1 POP SSTORE POP PUSH1 0x0 GAS PUSH1 0x0 DUP5 DUP2 MSTORE PUSH2 0x102 PUSH1 0x20 MSTORE PUSH1 0x40 SWAP1 KECCAK256 PUSH1 0x1 DUP1 DUP3 ADD SLOAD SWAP3 SWAP4 POP SWAP1 SWAP2 PUSH1 0xFF AND ISZERO ISZERO EQ ISZERO PUSH2 0x12C1 JUMPI PUSH1 0x40 MLOAD PUSH3 0x461BCD PUSH1 0xE5 SHL DUP2 MSTORE PUSH1 0x20 PUSH1 0x4 DUP3 ADD MSTORE PUSH1 0x14 PUSH1 0x24 DUP3 ADD MSTORE PUSH20 0x4475706C69636174652053656564732044617461 PUSH1 0x60 SHL PUSH1 0x44 DUP3 ADD MSTORE PUSH1 0x64 ADD PUSH2 0x268 JUMP JUMPDEST DUP4 DUP2 SSTORE PUSH2 0x13BD DUP5 NUMBER DUP5 PUSH1 0x40 DUP1 MLOAD PUSH1 0x80 DUP2 ADD DUP3 MSTORE SWAP4 DUP5 MSTORE PUSH1 0x20 DUP5 ADD SWAP3 DUP4 MSTORE CALLER SWAP1 DUP5 ADD SWAP1 DUP2 MSTORE PUSH1 0x60 DUP5 ADD SWAP2 DUP3 MSTORE PUSH2 0x101 DUP1 SLOAD PUSH1 0x1 DUP1 DUP3 ADD DUP4 SSTORE PUSH1 0x0 SWAP3 SWAP1 SWAP3 MSTORE SWAP5 MLOAD PUSH32 0x109EA3CEBB188B9C1B9FC5BB3920BE60DFDC8699098DFF92F3D80DAACA747689 PUSH1 0x4 SWAP1 SWAP7 MUL SWAP6 DUP7 ADD SSTORE SWAP3 MLOAD PUSH32 0x109EA3CEBB188B9C1B9FC5BB3920BE60DFDC8699098DFF92F3D80DAACA74768A DUP6 ADD SSTORE MLOAD PUSH32 0x109EA3CEBB188B9C1B9FC5BB3920BE60DFDC8699098DFF92F3D80DAACA74768B DUP5 ADD DUP1 SLOAD PUSH1 0x1 PUSH1 0x1 PUSH1 0xA0 SHL SUB NOT AND PUSH1 0x1 PUSH1 0x1 PUSH1 0xA0 SHL SUB SWAP1 SWAP3 AND SWAP2 SWAP1 SWAP2 OR SWAP1 SSTORE MLOAD PUSH32 0x109EA3CEBB188B9C1B9FC5BB3920BE60DFDC8699098DFF92F3D80DAACA74768C SWAP1 SWAP3 ADD SWAP2 SWAP1 SWAP2 SSTORE SWAP1 JUMP JUMPDEST PUSH1 0x1 DUP3 ADD DUP1 SLOAD PUSH1 0xFF NOT AND SWAP2 ISZERO ISZERO SWAP2 SWAP1 SWAP2 OR SWAP1 SSTORE PUSH1 0xFC DUP1 SLOAD SWAP1 PUSH1 0x0 PUSH2 0x13E0 DUP4 PUSH2 0x2FB5 JUMP JUMPDEST SWAP2 SWAP1 POP SSTORE POP CALLER PUSH1 0x0 SWAP1 DUP2 MSTORE PUSH2 0x103 PUSH1 0x20 MSTORE PUSH1 0x40 SWAP1 KECCAK256 DUP1 SLOAD PUSH1 0x1 PUSH1 0x1 PUSH1 0xA0 SHL SUB AND ISZERO PUSH2 0x140A JUMPI PUSH2 0x141B JUMP JUMPDEST DUP1 SLOAD PUSH1 0x1 PUSH1 0x1 PUSH1 0xA0 SHL SUB NOT AND CALLER OR DUP2 SSTORE JUMPDEST PUSH1 0x1 DUP2 ADD DUP1 SLOAD SWAP1 PUSH1 0x0 PUSH2 0x142D DUP4 PUSH2 0x2FB5 JUMP JUMPDEST SWAP2 SWAP1 POP SSTORE POP PUSH1 0x0 JUMPDEST PUSH2 0x106 SLOAD DUP2 LT ISZERO PUSH2 0x14C9 JUMPI PUSH2 0x101 PUSH2 0x106 DUP3 DUP2 SLOAD DUP2 LT PUSH2 0x1457 JUMPI PUSH2 0x1457 PUSH2 0x2FD0 JUMP JUMPDEST SWAP1 PUSH1 0x0 MSTORE PUSH1 0x20 PUSH1 0x0 KECCAK256 ADD SLOAD DUP2 SLOAD DUP2 LT PUSH2 0x1472 JUMPI PUSH2 0x1472 PUSH2 0x2FD0 JUMP JUMPDEST PUSH1 0x0 SWAP2 DUP3 MSTORE PUSH1 0x20 DUP3 KECCAK256 PUSH1 0x3 PUSH1 0x4 SWAP1 SWAP3 MUL ADD ADD SLOAD PUSH2 0x105 DUP1 SLOAD PUSH1 0x1 DUP2 ADD DUP3 SSTORE SWAP3 MSTORE PUSH32 0xFC62ABC8C0FC47C2D92F5AEC99BF8B60F375828E14394D89345CAE11A9867371 SWAP1 SWAP2 ADD SSTORE DUP1 PUSH2 0x14C1 DUP2 PUSH2 0x2FB5 JUMP JUMPDEST SWAP2 POP POP PUSH2 0x1435 JUMP JUMPDEST POP PUSH2 0x152A PUSH2 0x105 DUP1 SLOAD DUP1 PUSH1 0x20 MUL PUSH1 0x20 ADD PUSH1 0x40 MLOAD SWAP1 DUP2 ADD PUSH1 0x40 MSTORE DUP1 SWAP3 SWAP2 SWAP1 DUP2 DUP2 MSTORE PUSH1 0x20 ADD DUP3 DUP1 SLOAD DUP1 ISZERO PUSH2 0x151A JUMPI PUSH1 0x20 MUL DUP3 ADD SWAP2 SWAP1 PUSH1 0x0 MSTORE PUSH1 0x20 PUSH1 0x0 KECCAK256 SWAP1 JUMPDEST DUP2 SLOAD DUP2 MSTORE PUSH1 0x20 ADD SWAP1 PUSH1 0x1 ADD SWAP1 DUP1 DUP4 GT PUSH2 0x1506 JUMPI JUMPDEST POP POP PUSH2 0x105 SLOAD SWAP3 POP PUSH2 0x1DFD SWAP2 POP POP JUMP JUMPDEST POP PUSH2 0x1538 PUSH2 0x105 PUSH1 0x0 PUSH2 0x2A26 JUMP JUMPDEST POP POP PUSH1 0xFC SLOAD PUSH2 0x106 DUP1 SLOAD PUSH1 0x1 DUP2 ADD DUP3 SSTORE PUSH1 0x0 DUP3 SWAP1 MSTORE PUSH32 0xC9EF9FCEEA91E87B2C84EA400A44FDE78842AAE8AA24CD4B502CE5FB4D91E63B ADD SWAP2 SWAP1 SWAP2 SSTORE SLOAD PUSH2 0x107 SSTORE POP POP PUSH2 0x100 DUP1 SLOAD PUSH1 0xFF NOT AND SWAP1 SSTORE POP JUMP JUMPDEST PUSH1 0x65 SLOAD PUSH1 0x1 PUSH1 0x1 PUSH1 0xA0 SHL SUB AND CALLER EQ PUSH2 0x15B2 JUMPI PUSH1 0x40 MLOAD PUSH3 0x461BCD PUSH1 0xE5 SHL DUP2 MSTORE PUSH1 0x4 ADD PUSH2 0x268 SWAP1 PUSH2 0x2DB1 JUMP JUMPDEST PUSH1 0x1 PUSH1 0x1 PUSH1 0xA0 SHL SUB DUP2 AND PUSH2 0x1617 JUMPI PUSH1 0x40 MLOAD PUSH3 0x461BCD PUSH1 0xE5 SHL DUP2 MSTORE PUSH1 0x20 PUSH1 0x4 DUP3 ADD MSTORE PUSH1 0x26 PUSH1 0x24 DUP3 ADD MSTORE PUSH32 0x4F776E61626C653A206E6577206F776E657220697320746865207A65726F2061 PUSH1 0x44 DUP3 ADD MSTORE PUSH6 0x646472657373 PUSH1 0xD0 SHL PUSH1 0x64 DUP3 ADD MSTORE PUSH1 0x84 ADD PUSH2 0x268 JUMP JUMPDEST PUSH2 0xB0D DUP2 PUSH2 0x1B6A JUMP JUMPDEST PUSH1 0x1 PUSH1 0x1 PUSH1 0xA0 SHL SUB DUP4 AND PUSH2 0x1682 JUMPI PUSH1 0x40 MLOAD PUSH3 0x461BCD PUSH1 0xE5 SHL DUP2 MSTORE PUSH1 0x20 PUSH1 0x4 DUP3 ADD MSTORE PUSH1 0x24 DUP1 DUP3 ADD MSTORE PUSH32 0x45524332303A20617070726F76652066726F6D20746865207A65726F20616464 PUSH1 0x44 DUP3 ADD MSTORE PUSH4 0x72657373 PUSH1 0xE0 SHL PUSH1 0x64 DUP3 ADD MSTORE PUSH1 0x84 ADD PUSH2 0x268 JUMP JUMPDEST PUSH1 0x1 PUSH1 0x1 PUSH1 0xA0 SHL SUB DUP3 AND PUSH2 0x16E3 JUMPI PUSH1 0x40 MLOAD PUSH3 0x461BCD PUSH1 0xE5 SHL DUP2 MSTORE PUSH1 0x20 PUSH1 0x4 DUP3 ADD MSTORE PUSH1 0x22 PUSH1 0x24 DUP3 ADD MSTORE PUSH32 0x45524332303A20617070726F766520746F20746865207A65726F206164647265 PUSH1 0x44 DUP3 ADD MSTORE PUSH2 0x7373 PUSH1 0xF0 SHL PUSH1 0x64 DUP3 ADD MSTORE PUSH1 0x84 ADD PUSH2 0x268 JUMP JUMPDEST PUSH1 0x1 PUSH1 0x1 PUSH1 0xA0 SHL SUB DUP4 DUP2 AND PUSH1 0x0 DUP2 DUP2 MSTORE PUSH1 0x34 PUSH1 0x20 SWAP1 DUP2 MSTORE PUSH1 0x40 DUP1 DUP4 KECCAK256 SWAP5 DUP8 AND DUP1 DUP5 MSTORE SWAP5 DUP3 MSTORE SWAP2 DUP3 SWAP1 KECCAK256 DUP6 SWAP1 SSTORE SWAP1 MLOAD DUP5 DUP2 MSTORE PUSH32 0x8C5BE1E5EBEC7D5BD14F71427D1E84F3DD0314C0F7B2291E5B200AC8C7C3B925 SWAP2 ADD PUSH1 0x40 MLOAD DUP1 SWAP2 SUB SWAP1 LOG3 POP POP POP JUMP JUMPDEST PUSH1 0x1 PUSH1 0x1 PUSH1 0xA0 SHL SUB DUP4 AND PUSH2 0x17A8 JUMPI PUSH1 0x40 MLOAD PUSH3 0x461BCD PUSH1 0xE5 SHL DUP2 MSTORE PUSH1 0x20 PUSH1 0x4 DUP3 ADD MSTORE PUSH1 0x25 PUSH1 0x24 DUP3 ADD MSTORE PUSH32 0x45524332303A207472616E736665722066726F6D20746865207A65726F206164 PUSH1 0x44 DUP3 ADD MSTORE PUSH5 0x6472657373 PUSH1 0xD8 SHL PUSH1 0x64 DUP3 ADD MSTORE PUSH1 0x84 ADD PUSH2 0x268 JUMP JUMPDEST PUSH1 0x1 PUSH1 0x1 PUSH1 0xA0 SHL SUB DUP3 AND PUSH2 0x180A JUMPI PUSH1 0x40 MLOAD PUSH3 0x461BCD PUSH1 0xE5 SHL DUP2 MSTORE PUSH1 0x20 PUSH1 0x4 DUP3 ADD MSTORE PUSH1 0x23 PUSH1 0x24 DUP3 ADD MSTORE PUSH32 0x45524332303A207472616E7366657220746F20746865207A65726F2061646472 PUSH1 0x44 DUP3 ADD MSTORE PUSH3 0x657373 PUSH1 0xE8 SHL PUSH1 0x64 DUP3 ADD MSTORE PUSH1 0x84 ADD PUSH2 0x268 JUMP JUMPDEST PUSH1 0x1 PUSH1 0x1 PUSH1 0xA0 SHL SUB DUP4 AND PUSH1 0x0 SWAP1 DUP2 MSTORE PUSH1 0x33 PUSH1 0x20 MSTORE PUSH1 0x40 SWAP1 KECCAK256 SLOAD DUP2 DUP2 LT ISZERO PUSH2 0x1882 JUMPI PUSH1 0x40 MLOAD PUSH3 0x461BCD PUSH1 0xE5 SHL DUP2 MSTORE PUSH1 0x20 PUSH1 0x4 DUP3 ADD MSTORE PUSH1 0x26 PUSH1 0x24 DUP3 ADD MSTORE PUSH32 0x45524332303A207472616E7366657220616D6F756E7420657863656564732062 PUSH1 0x44 DUP3 ADD MSTORE PUSH6 0x616C616E6365 PUSH1 0xD0 SHL PUSH1 0x64 DUP3 ADD MSTORE PUSH1 0x84 ADD PUSH2 0x268 JUMP JUMPDEST PUSH1 0x1 PUSH1 0x1 PUSH1 0xA0 SHL SUB DUP1 DUP6 AND PUSH1 0x0 SWAP1 DUP2 MSTORE PUSH1 0x33 PUSH1 0x20 MSTORE PUSH1 0x40 DUP1 DUP3 KECCAK256 DUP6 DUP6 SUB SWAP1 SSTORE SWAP2 DUP6 AND DUP2 MSTORE SWAP1 DUP2 KECCAK256 DUP1 SLOAD DUP5 SWAP3 SWAP1 PUSH2 0x18B9 SWAP1 DUP5 SWAP1 PUSH2 0x2DFC JUMP JUMPDEST SWAP3 POP POP DUP2 SWAP1 SSTORE POP DUP3 PUSH1 0x1 PUSH1 0x1 PUSH1 0xA0 SHL SUB AND DUP5 PUSH1 0x1 PUSH1 0x1 PUSH1 0xA0 SHL SUB AND PUSH32 0xDDF252AD1BE2C89B69C2B068FC378DAA952BA7F163C4A11628F55A4DF523B3EF DUP5 PUSH1 0x40 MLOAD PUSH2 0x1905 SWAP2 DUP2 MSTORE PUSH1 0x20 ADD SWAP1 JUMP JUMPDEST PUSH1 0x40 MLOAD DUP1 SWAP2 SUB SWAP1 LOG3 JUMPDEST POP POP POP POP JUMP JUMPDEST PUSH1 0x65 SLOAD PUSH1 0x1 PUSH1 0x1 PUSH1 0xA0 SHL SUB AND CALLER EQ PUSH2 0xB0D JUMPI PUSH1 0x40 MLOAD PUSH3 0x461BCD PUSH1 0xE5 SHL DUP2 MSTORE PUSH1 0x4 ADD PUSH2 0x268 SWAP1 PUSH2 0x2DB1 JUMP JUMPDEST PUSH1 0x0 PUSH2 0x1971 PUSH32 0x360894A13BA1A3210667C828492DB98DCA3E2076CC3735A920A3CA505D382BBC SLOAD PUSH1 0x1 PUSH1 0x1 PUSH1 0xA0 SHL SUB AND SWAP1 JUMP JUMPDEST SWAP1 POP PUSH2 0x197C DUP5 PUSH2 0x1F0F JUMP JUMPDEST PUSH1 0x0 DUP4 MLOAD GT DUP1 PUSH2 0x1989 JUMPI POP DUP2 JUMPDEST ISZERO PUSH2 0x199A JUMPI PUSH2 0x1998 DUP5 DUP5 PUSH2 0x1FB4 JUMP JUMPDEST POP JUMPDEST PUSH32 0x4910FDFA16FED3260ED0E7147F7CC6DA11A60208B5B9406D12A635614FFD9143 DUP1 SLOAD PUSH1 0xFF AND PUSH2 0x1ABF JUMPI DUP1 SLOAD PUSH1 0xFF NOT AND PUSH1 0x1 OR DUP2 SSTORE PUSH1 0x40 MLOAD PUSH1 0x1 PUSH1 0x1 PUSH1 0xA0 SHL SUB DUP4 AND PUSH1 0x24 DUP3 ADD MSTORE PUSH2 0x1A19 SWAP1 DUP7 SWAP1 PUSH1 0x44 ADD PUSH1 0x40 DUP1 MLOAD PUSH1 0x1F NOT DUP2 DUP5 SUB ADD DUP2 MSTORE SWAP2 SWAP1 MSTORE PUSH1 0x20 DUP2 ADD DUP1 MLOAD PUSH1 0x1 PUSH1 0x1 PUSH1 0xE0 SHL SUB AND PUSH4 0x1B2CE7F3 PUSH1 0xE1 SHL OR SWAP1 MSTORE PUSH2 0x1FB4 JUMP JUMPDEST POP DUP1 SLOAD PUSH1 0xFF NOT AND DUP2 SSTORE PUSH32 0x360894A13BA1A3210667C828492DB98DCA3E2076CC3735A920A3CA505D382BBC SLOAD PUSH1 0x1 PUSH1 0x1 PUSH1 0xA0 SHL SUB DUP4 DUP2 AND SWAP2 AND EQ PUSH2 0x1AB6 JUMPI PUSH1 0x40 MLOAD PUSH3 0x461BCD PUSH1 0xE5 SHL DUP2 MSTORE PUSH1 0x20 PUSH1 0x4 DUP3 ADD MSTORE PUSH1 0x2F PUSH1 0x24 DUP3 ADD MSTORE PUSH32 0x45524331393637557067726164653A207570677261646520627265616B732066 PUSH1 0x44 DUP3 ADD MSTORE PUSH15 0x757274686572207570677261646573 PUSH1 0x88 SHL PUSH1 0x64 DUP3 ADD MSTORE PUSH1 0x84 ADD PUSH2 0x268 JUMP JUMPDEST PUSH2 0x1ABF DUP6 PUSH2 0x209F JUMP JUMPDEST POP POP POP POP POP JUMP JUMPDEST PUSH1 0x0 PUSH25 0x12725DD1D243ABA0E75FE645CC4873F9E65AFE688C928E1F21 DUP3 GT ISZERO PUSH2 0x1B05 JUMPI PUSH1 0x40 MLOAD PUSH4 0x3492FFD9 PUSH1 0xE0 SHL DUP2 MSTORE PUSH1 0x4 DUP2 ADD DUP4 SWAP1 MSTORE PUSH1 0x24 ADD PUSH2 0x268 JUMP JUMPDEST POP PUSH8 0xDE0B6B3A7640000 MUL SWAP1 JUMP JUMPDEST PUSH1 0x0 PUSH2 0xA6B DUP4 PUSH8 0xDE0B6B3A7640000 DUP5 PUSH2 0x20DF JUMP JUMPDEST PUSH1 0x0 PUSH2 0x1B51 PUSH2 0x1B36 DUP5 PUSH2 0x1AC6 JUMP JUMPDEST PUSH2 0x1B4C PUSH2 0x1B42 DUP6 PUSH2 0x1AC6 JUMP JUMPDEST PUSH2 0xCC3 PUSH1 0x64 PUSH2 0x1AC6 JUMP JUMPDEST PUSH2 0x1B5E JUMP JUMPDEST PUSH1 0xFF SLOAD PUSH2 0xA6B SWAP2 SWAP1 PUSH2 0x2E14 JUMP JUMPDEST PUSH1 0x0 PUSH2 0xA6B DUP4 DUP4 PUSH2 0x21AD JUMP JUMPDEST PUSH1 0x65 DUP1 SLOAD PUSH1 0x1 PUSH1 0x1 PUSH1 0xA0 SHL SUB DUP4 DUP2 AND PUSH1 0x1 PUSH1 0x1 PUSH1 0xA0 SHL SUB NOT DUP4 AND DUP2 OR SWAP1 SWAP4 SSTORE PUSH1 0x40 MLOAD SWAP2 AND SWAP2 SWAP1 DUP3 SWAP1 PUSH32 0x8BE0079C531659141344CD1FD0A4F28419497F9722A3DAAFE3B4186F6B6457E0 SWAP1 PUSH1 0x0 SWAP1 LOG3 POP POP JUMP JUMPDEST PUSH1 0x0 SLOAD PUSH2 0x100 SWAP1 DIV PUSH1 0xFF AND DUP1 PUSH2 0x1BD5 JUMPI POP PUSH1 0x0 SLOAD PUSH1 0xFF AND ISZERO JUMPDEST PUSH2 0x1BF1 JUMPI PUSH1 0x40 MLOAD PUSH3 0x461BCD PUSH1 0xE5 SHL DUP2 MSTORE PUSH1 0x4 ADD PUSH2 0x268 SWAP1 PUSH2 0x2E55 JUMP JUMPDEST PUSH1 0x0 SLOAD PUSH2 0x100 SWAP1 DIV PUSH1 0xFF AND ISZERO DUP1 ISZERO PUSH2 0x1C13 JUMPI PUSH1 0x0 DUP1 SLOAD PUSH2 0xFFFF NOT AND PUSH2 0x101 OR SWAP1 SSTORE JUMPDEST PUSH2 0x1C1B PUSH2 0x226F JUMP JUMPDEST PUSH2 0x1C25 DUP4 DUP4 PUSH2 0x22D9 JUMP JUMPDEST DUP1 ISZERO PUSH2 0x1C37 JUMPI PUSH1 0x0 DUP1 SLOAD PUSH2 0xFF00 NOT AND SWAP1 SSTORE JUMPDEST POP POP POP JUMP JUMPDEST PUSH1 0x0 SLOAD PUSH2 0x100 SWAP1 DIV PUSH1 0xFF AND DUP1 PUSH2 0x1C55 JUMPI POP PUSH1 0x0 SLOAD PUSH1 0xFF AND ISZERO JUMPDEST PUSH2 0x1C71 JUMPI PUSH1 0x40 MLOAD PUSH3 0x461BCD PUSH1 0xE5 SHL DUP2 MSTORE PUSH1 0x4 ADD PUSH2 0x268 SWAP1 PUSH2 0x2E55 JUMP JUMPDEST PUSH1 0x0 SLOAD PUSH2 0x100 SWAP1 DIV PUSH1 0xFF AND ISZERO DUP1 ISZERO PUSH2 0x1C93 JUMPI PUSH1 0x0 DUP1 SLOAD PUSH2 0xFFFF NOT AND PUSH2 0x101 OR SWAP1 SSTORE JUMPDEST PUSH2 0x1C9B PUSH2 0x226F JUMP JUMPDEST PUSH2 0x1CA3 PUSH2 0x236E JUMP JUMPDEST DUP1 ISZERO PUSH2 0xB0D JUMPI PUSH1 0x0 DUP1 SLOAD PUSH2 0xFF00 NOT AND SWAP1 SSTORE POP JUMP JUMPDEST PUSH1 0x0 SLOAD PUSH2 0x100 SWAP1 DIV PUSH1 0xFF AND DUP1 PUSH2 0x1CD0 JUMPI POP PUSH1 0x0 SLOAD PUSH1 0xFF AND ISZERO JUMPDEST PUSH2 0x1CEC JUMPI PUSH1 0x40 MLOAD PUSH3 0x461BCD PUSH1 0xE5 SHL DUP2 MSTORE PUSH1 0x4 ADD PUSH2 0x268 SWAP1 PUSH2 0x2E55 JUMP JUMPDEST PUSH1 0x0 SLOAD PUSH2 0x100 SWAP1 DIV PUSH1 0xFF AND ISZERO DUP1 ISZERO PUSH2 0x1D0E JUMPI PUSH1 0x0 DUP1 SLOAD PUSH2 0xFFFF NOT AND PUSH2 0x101 OR SWAP1 SSTORE JUMPDEST PUSH2 0x1D16 PUSH2 0x226F JUMP JUMPDEST PUSH2 0x1CA3 PUSH2 0x226F JUMP JUMPDEST PUSH1 0x1 PUSH1 0x1 PUSH1 0xA0 SHL SUB DUP3 AND PUSH2 0x1D74 JUMPI PUSH1 0x40 MLOAD PUSH3 0x461BCD PUSH1 0xE5 SHL DUP2 MSTORE PUSH1 0x20 PUSH1 0x4 DUP3 ADD MSTORE PUSH1 0x1F PUSH1 0x24 DUP3 ADD MSTORE PUSH32 0x45524332303A206D696E7420746F20746865207A65726F206164647265737300 PUSH1 0x44 DUP3 ADD MSTORE PUSH1 0x64 ADD PUSH2 0x268 JUMP JUMPDEST DUP1 PUSH1 0x35 PUSH1 0x0 DUP3 DUP3 SLOAD PUSH2 0x1D86 SWAP2 SWAP1 PUSH2 0x2DFC JUMP JUMPDEST SWAP1 SWAP2 SSTORE POP POP PUSH1 0x1 PUSH1 0x1 PUSH1 0xA0 SHL SUB DUP3 AND PUSH1 0x0 SWAP1 DUP2 MSTORE PUSH1 0x33 PUSH1 0x20 MSTORE PUSH1 0x40 DUP2 KECCAK256 DUP1 SLOAD DUP4 SWAP3 SWAP1 PUSH2 0x1DB3 SWAP1 DUP5 SWAP1 PUSH2 0x2DFC JUMP JUMPDEST SWAP1 SWAP2 SSTORE POP POP PUSH1 0x40 MLOAD DUP2 DUP2 MSTORE PUSH1 0x1 PUSH1 0x1 PUSH1 0xA0 SHL SUB DUP4 AND SWAP1 PUSH1 0x0 SWAP1 PUSH32 0xDDF252AD1BE2C89B69C2B068FC378DAA952BA7F163C4A11628F55A4DF523B3EF SWAP1 PUSH1 0x20 ADD PUSH1 0x40 MLOAD DUP1 SWAP2 SUB SWAP1 LOG3 POP POP JUMP JUMPDEST PUSH1 0x0 DUP2 PUSH2 0x1E0C JUMPI POP PUSH1 0x0 PUSH2 0x9C0 JUMP JUMPDEST PUSH2 0x1E18 DUP4 PUSH1 0x0 DUP5 PUSH2 0x23CE JUMP JUMPDEST PUSH1 0x0 PUSH2 0x1E25 PUSH1 0x2 DUP5 PUSH2 0x2E41 JUMP JUMPDEST ISZERO PUSH2 0x1E53 JUMPI DUP4 PUSH2 0x1E36 PUSH1 0x2 DUP6 PUSH2 0x2FE6 JUMP JUMPDEST DUP2 MLOAD DUP2 LT PUSH2 0x1E46 JUMPI PUSH2 0x1E46 PUSH2 0x2FD0 JUMP JUMPDEST PUSH1 0x20 MUL PUSH1 0x20 ADD ADD MLOAD PUSH2 0x1EB1 JUMP JUMPDEST PUSH2 0x1EB1 DUP5 PUSH1 0x1 PUSH2 0x1E64 PUSH1 0x2 DUP8 PUSH2 0x2FE6 JUMP JUMPDEST PUSH2 0x1E6E SWAP2 SWAP1 PUSH2 0x2E14 JUMP JUMPDEST DUP2 MLOAD DUP2 LT PUSH2 0x1E7E JUMPI PUSH2 0x1E7E PUSH2 0x2FD0 JUMP JUMPDEST PUSH1 0x20 MUL PUSH1 0x20 ADD ADD MLOAD DUP6 PUSH1 0x2 DUP7 PUSH2 0x1E94 SWAP2 SWAP1 PUSH2 0x2FE6 JUMP JUMPDEST DUP2 MLOAD DUP2 LT PUSH2 0x1EA4 JUMPI PUSH2 0x1EA4 PUSH2 0x2FD0 JUMP JUMPDEST PUSH1 0x20 MUL PUSH1 0x20 ADD ADD MLOAD PUSH2 0x2486 JUMP JUMPDEST SWAP1 POP PUSH2 0x1EBC DUP2 PUSH2 0x24A1 JUMP JUMPDEST POP PUSH2 0x1EC8 PUSH1 0x2 DUP5 PUSH2 0x2E41 JUMP JUMPDEST ISZERO PUSH2 0x1EF6 JUMPI DUP4 PUSH2 0x1ED9 PUSH1 0x2 DUP6 PUSH2 0x2FE6 JUMP JUMPDEST DUP2 MLOAD DUP2 LT PUSH2 0x1EE9 JUMPI PUSH2 0x1EE9 PUSH2 0x2FD0 JUMP JUMPDEST PUSH1 0x20 MUL PUSH1 0x20 ADD ADD MLOAD PUSH2 0x1F07 JUMP JUMPDEST PUSH2 0x1F07 DUP5 PUSH1 0x1 PUSH2 0x1E64 PUSH1 0x2 DUP8 PUSH2 0x2FE6 JUMP JUMPDEST SWAP5 SWAP4 POP POP POP POP JUMP JUMPDEST DUP1 EXTCODESIZE PUSH2 0x1F73 JUMPI PUSH1 0x40 MLOAD PUSH3 0x461BCD PUSH1 0xE5 SHL DUP2 MSTORE PUSH1 0x20 PUSH1 0x4 DUP3 ADD MSTORE PUSH1 0x2D PUSH1 0x24 DUP3 ADD MSTORE PUSH32 0x455243313936373A206E657720696D706C656D656E746174696F6E206973206E PUSH1 0x44 DUP3 ADD MSTORE PUSH13 0x1BDD08184818DBDB9D1C9858DD PUSH1 0x9A SHL PUSH1 0x64 DUP3 ADD MSTORE PUSH1 0x84 ADD PUSH2 0x268 JUMP JUMPDEST PUSH32 0x360894A13BA1A3210667C828492DB98DCA3E2076CC3735A920A3CA505D382BBC DUP1 SLOAD PUSH1 0x1 PUSH1 0x1 PUSH1 0xA0 SHL SUB NOT AND PUSH1 0x1 PUSH1 0x1 PUSH1 0xA0 SHL SUB SWAP3 SWAP1 SWAP3 AND SWAP2 SWAP1 SWAP2 OR SWAP1 SSTORE JUMP JUMPDEST PUSH1 0x60 DUP3 EXTCODESIZE PUSH2 0x2013 JUMPI PUSH1 0x40 MLOAD PUSH3 0x461BCD PUSH1 0xE5 SHL DUP2 MSTORE PUSH1 0x20 PUSH1 0x4 DUP3 ADD MSTORE PUSH1 0x26 PUSH1 0x24 DUP3 ADD MSTORE PUSH32 0x416464726573733A2064656C65676174652063616C6C20746F206E6F6E2D636F PUSH1 0x44 DUP3 ADD MSTORE PUSH6 0x1B9D1C9858DD PUSH1 0xD2 SHL PUSH1 0x64 DUP3 ADD MSTORE PUSH1 0x84 ADD PUSH2 0x268 JUMP JUMPDEST PUSH1 0x0 DUP1 DUP5 PUSH1 0x1 PUSH1 0x1 PUSH1 0xA0 SHL SUB AND DUP5 PUSH1 0x40 MLOAD PUSH2 0x202E SWAP2 SWAP1 PUSH2 0x2FFA JUMP JUMPDEST PUSH1 0x0 PUSH1 0x40 MLOAD DUP1 DUP4 SUB DUP2 DUP6 GAS DELEGATECALL SWAP2 POP POP RETURNDATASIZE DUP1 PUSH1 0x0 DUP2 EQ PUSH2 0x2069 JUMPI PUSH1 0x40 MLOAD SWAP2 POP PUSH1 0x1F NOT PUSH1 0x3F RETURNDATASIZE ADD AND DUP3 ADD PUSH1 0x40 MSTORE RETURNDATASIZE DUP3 MSTORE RETURNDATASIZE PUSH1 0x0 PUSH1 0x20 DUP5 ADD RETURNDATACOPY PUSH2 0x206E JUMP JUMPDEST PUSH1 0x60 SWAP2 POP JUMPDEST POP SWAP2 POP SWAP2 POP PUSH2 0x2096 DUP3 DUP3 PUSH1 0x40 MLOAD DUP1 PUSH1 0x60 ADD PUSH1 0x40 MSTORE DUP1 PUSH1 0x27 DUP2 MSTORE PUSH1 0x20 ADD PUSH2 0x302D PUSH1 0x27 SWAP2 CODECOPY PUSH2 0x290C JUMP JUMPDEST SWAP6 SWAP5 POP POP POP POP POP JUMP JUMPDEST PUSH2 0x20A8 DUP2 PUSH2 0x1F0F JUMP JUMPDEST PUSH1 0x40 MLOAD PUSH1 0x1 PUSH1 0x1 PUSH1 0xA0 SHL SUB DUP3 AND SWAP1 PUSH32 0xBC7CD75A20EE27FD9ADEBAB32041F755214DBC6BFFA90CC0225B39DA2E5C2D3B SWAP1 PUSH1 0x0 SWAP1 LOG2 POP JUMP JUMPDEST PUSH1 0x0 DUP1 DUP1 PUSH1 0x0 NOT DUP6 DUP8 MULMOD DUP6 DUP8 MUL SWAP3 POP DUP3 DUP2 LT DUP4 DUP3 SUB SUB SWAP2 POP POP DUP1 PUSH1 0x0 EQ ISZERO PUSH2 0x211A JUMPI DUP4 DUP3 DUP2 PUSH2 0x2110 JUMPI PUSH2 0x2110 PUSH2 0x2E2B JUMP JUMPDEST DIV SWAP3 POP POP POP PUSH2 0xA6B JUMP JUMPDEST DUP4 DUP2 LT PUSH2 0x2144 JUMPI PUSH1 0x40 MLOAD PUSH4 0x1DCF3063 PUSH1 0xE2 SHL DUP2 MSTORE PUSH1 0x4 DUP2 ADD DUP3 SWAP1 MSTORE PUSH1 0x24 DUP2 ADD DUP6 SWAP1 MSTORE PUSH1 0x44 ADD PUSH2 0x268 JUMP JUMPDEST PUSH1 0x0 DUP5 DUP7 DUP9 MULMOD PUSH1 0x2 PUSH1 0x1 DUP8 NOT DUP2 ADD DUP9 AND SWAP8 DUP9 SWAP1 DIV PUSH1 0x3 DUP2 MUL DUP4 XOR DUP1 DUP3 MUL DUP5 SUB MUL DUP1 DUP3 MUL DUP5 SUB MUL DUP1 DUP3 MUL DUP5 SUB MUL DUP1 DUP3 MUL DUP5 SUB MUL DUP1 DUP3 MUL DUP5 SUB MUL SWAP1 DUP2 MUL SWAP1 SWAP3 SUB SWAP1 SWAP2 MUL PUSH1 0x0 DUP9 SWAP1 SUB DUP9 SWAP1 DIV SWAP1 SWAP2 ADD DUP6 DUP4 GT SWAP1 SWAP5 SUB SWAP4 SWAP1 SWAP4 MUL SWAP4 SUB SWAP5 SWAP1 SWAP5 DIV SWAP2 SWAP1 SWAP2 OR MUL SWAP5 SWAP4 POP POP POP POP JUMP JUMPDEST PUSH1 0x0 DUP1 DUP1 PUSH1 0x0 NOT DUP5 DUP7 MULMOD DUP5 DUP7 MUL SWAP3 POP DUP3 DUP2 LT DUP4 DUP3 SUB SUB SWAP2 POP POP PUSH8 0xDE0B6B3A7640000 DUP2 LT PUSH2 0x21F1 JUMPI PUSH1 0x40 MLOAD PUSH4 0x698D9A01 PUSH1 0xE1 SHL DUP2 MSTORE PUSH1 0x4 DUP2 ADD DUP3 SWAP1 MSTORE PUSH1 0x24 ADD PUSH2 0x268 JUMP JUMPDEST PUSH1 0x0 DUP1 PUSH8 0xDE0B6B3A7640000 DUP7 DUP9 MULMOD SWAP2 POP POP PUSH8 0x6F05B59D3B1FFFF DUP2 GT DUP3 PUSH2 0x222B JUMPI DUP1 PUSH8 0xDE0B6B3A7640000 DUP6 DIV ADD SWAP5 POP POP POP POP POP PUSH2 0x9C0 JUMP JUMPDEST PUSH3 0x40000 DUP3 DUP6 SUB DIV SWAP4 SWAP1 SWAP2 GT SWAP1 SWAP2 SUB PUSH1 0x1 PUSH1 0xEE SHL MUL SWAP2 SWAP1 SWAP2 OR PUSH32 0xACCB18165BD6FE31AE1CF318DC5B51EEE0E1BA569B88CD74C1773B91FAC10669 MUL ADD SWAP1 POP SWAP3 SWAP2 POP POP JUMP JUMPDEST PUSH1 0x0 SLOAD PUSH2 0x100 SWAP1 DIV PUSH1 0xFF AND DUP1 PUSH2 0x2288 JUMPI POP PUSH1 0x0 SLOAD PUSH1 0xFF AND ISZERO JUMPDEST PUSH2 0x22A4 JUMPI PUSH1 0x40 MLOAD PUSH3 0x461BCD PUSH1 0xE5 SHL DUP2 MSTORE PUSH1 0x4 ADD PUSH2 0x268 SWAP1 PUSH2 0x2E55 JUMP JUMPDEST PUSH1 0x0 SLOAD PUSH2 0x100 SWAP1 DIV PUSH1 0xFF AND ISZERO DUP1 ISZERO PUSH2 0x1CA3 JUMPI PUSH1 0x0 DUP1 SLOAD PUSH2 0xFFFF NOT AND PUSH2 0x101 OR SWAP1 SSTORE DUP1 ISZERO PUSH2 0xB0D JUMPI PUSH1 0x0 DUP1 SLOAD PUSH2 0xFF00 NOT AND SWAP1 SSTORE POP JUMP JUMPDEST PUSH1 0x0 SLOAD PUSH2 0x100 SWAP1 DIV PUSH1 0xFF AND DUP1 PUSH2 0x22F2 JUMPI POP PUSH1 0x0 SLOAD PUSH1 0xFF AND ISZERO JUMPDEST PUSH2 0x230E JUMPI PUSH1 0x40 MLOAD PUSH3 0x461BCD PUSH1 0xE5 SHL DUP2 MSTORE PUSH1 0x4 ADD PUSH2 0x268 SWAP1 PUSH2 0x2E55 JUMP JUMPDEST PUSH1 0x0 SLOAD PUSH2 0x100 SWAP1 DIV PUSH1 0xFF AND ISZERO DUP1 ISZERO PUSH2 0x2330 JUMPI PUSH1 0x0 DUP1 SLOAD PUSH2 0xFFFF NOT AND PUSH2 0x101 OR SWAP1 SSTORE JUMPDEST DUP3 MLOAD PUSH2 0x2343 SWAP1 PUSH1 0x36 SWAP1 PUSH1 0x20 DUP7 ADD SWAP1 PUSH2 0x2A44 JUMP JUMPDEST POP DUP2 MLOAD PUSH2 0x2357 SWAP1 PUSH1 0x37 SWAP1 PUSH1 0x20 DUP6 ADD SWAP1 PUSH2 0x2A44 JUMP JUMPDEST POP DUP1 ISZERO PUSH2 0x1C37 JUMPI PUSH1 0x0 DUP1 SLOAD PUSH2 0xFF00 NOT AND SWAP1 SSTORE POP POP POP JUMP JUMPDEST PUSH1 0x0 SLOAD PUSH2 0x100 SWAP1 DIV PUSH1 0xFF AND DUP1 PUSH2 0x2387 JUMPI POP PUSH1 0x0 SLOAD PUSH1 0xFF AND ISZERO JUMPDEST PUSH2 0x23A3 JUMPI PUSH1 0x40 MLOAD PUSH3 0x461BCD PUSH1 0xE5 SHL DUP2 MSTORE PUSH1 0x4 ADD PUSH2 0x268 SWAP1 PUSH2 0x2E55 JUMP JUMPDEST PUSH1 0x0 SLOAD PUSH2 0x100 SWAP1 DIV PUSH1 0xFF AND ISZERO DUP1 ISZERO PUSH2 0x23C5 JUMPI PUSH1 0x0 DUP1 SLOAD PUSH2 0xFFFF NOT AND PUSH2 0x101 OR SWAP1 SSTORE JUMPDEST PUSH2 0x1CA3 CALLER PUSH2 0x1B6A JUMP JUMPDEST DUP1 DUP3 LT ISZERO PUSH2 0x1C37 JUMPI PUSH1 0x0 DUP3 SWAP1 POP PUSH1 0x0 DUP5 DUP3 DUP2 MLOAD DUP2 LT PUSH2 0x23EF JUMPI PUSH2 0x23EF PUSH2 0x2FD0 JUMP JUMPDEST PUSH1 0x20 MUL PUSH1 0x20 ADD ADD MLOAD SWAP1 POP PUSH1 0x0 DUP5 PUSH1 0x1 PUSH2 0x2408 SWAP2 SWAP1 PUSH2 0x2DFC JUMP JUMPDEST SWAP1 POP JUMPDEST DUP4 DUP2 LT ISZERO PUSH2 0x245A JUMPI DUP2 DUP7 DUP3 DUP2 MLOAD DUP2 LT PUSH2 0x2426 JUMPI PUSH2 0x2426 PUSH2 0x2FD0 JUMP JUMPDEST PUSH1 0x20 MUL PUSH1 0x20 ADD ADD MLOAD LT ISZERO PUSH2 0x244A JUMPI PUSH2 0x244A DUP7 DUP3 PUSH2 0x2442 DUP7 PUSH2 0x2FB5 JUMP JUMPDEST SWAP6 POP DUP6 PUSH2 0x2945 JUMP JUMPDEST PUSH2 0x2453 DUP2 PUSH2 0x2FB5 JUMP JUMPDEST SWAP1 POP PUSH2 0x240B JUMP JUMPDEST POP PUSH2 0x2466 DUP6 DUP6 DUP5 PUSH2 0x2945 JUMP JUMPDEST PUSH2 0x2471 DUP6 DUP6 DUP5 PUSH2 0x23CE JUMP JUMPDEST PUSH2 0x1ABF DUP6 PUSH2 0x2480 DUP5 PUSH1 0x1 PUSH2 0x2DFC JUMP JUMPDEST DUP6 PUSH2 0x23CE JUMP JUMPDEST PUSH1 0x0 PUSH2 0x2495 PUSH1 0x2 DUP5 DUP5 XOR PUSH2 0x2FE6 JUMP JUMPDEST PUSH2 0xA6B SWAP1 DUP5 DUP5 AND PUSH2 0x2DFC JUMP JUMPDEST PUSH1 0x0 DUP1 PUSH2 0x10B SLOAD PUSH2 0x101 PUSH1 0xFD SLOAD DUP2 SLOAD DUP2 LT PUSH2 0x24BE JUMPI PUSH2 0x24BE PUSH2 0x2FD0 JUMP JUMPDEST SWAP1 PUSH1 0x0 MSTORE PUSH1 0x20 PUSH1 0x0 KECCAK256 SWAP1 PUSH1 0x4 MUL ADD PUSH1 0x1 ADD SLOAD PUSH2 0x24DA SWAP2 SWAP1 PUSH2 0x2DFC JUMP JUMPDEST NUMBER GT DUP1 ISZERO PUSH2 0x24EE JUMPI POP PUSH2 0x108 SLOAD PUSH2 0x106 SLOAD LT ISZERO JUMPDEST ISZERO PUSH2 0x9C0 JUMPI PUSH1 0x0 PUSH2 0x25A5 PUSH2 0x101 PUSH2 0x106 PUSH1 0x0 DUP2 SLOAD DUP2 LT PUSH2 0x2510 JUMPI PUSH2 0x2510 PUSH2 0x2FD0 JUMP JUMPDEST SWAP1 PUSH1 0x0 MSTORE PUSH1 0x20 PUSH1 0x0 KECCAK256 ADD SLOAD DUP2 SLOAD DUP2 LT PUSH2 0x252B JUMPI PUSH2 0x252B PUSH2 0x2FD0 JUMP JUMPDEST SWAP1 PUSH1 0x0 MSTORE PUSH1 0x20 PUSH1 0x0 KECCAK256 SWAP1 PUSH1 0x4 MUL ADD PUSH1 0x3 ADD SLOAD PUSH2 0x101 PUSH2 0x106 PUSH1 0x1 PUSH2 0x106 DUP1 SLOAD SWAP1 POP PUSH2 0x2556 SWAP2 SWAP1 PUSH2 0x2E14 JUMP JUMPDEST DUP2 SLOAD DUP2 LT PUSH2 0x2566 JUMPI PUSH2 0x2566 PUSH2 0x2FD0 JUMP JUMPDEST SWAP1 PUSH1 0x0 MSTORE PUSH1 0x20 PUSH1 0x0 KECCAK256 ADD SLOAD DUP2 SLOAD DUP2 LT PUSH2 0x2581 JUMPI PUSH2 0x2581 PUSH2 0x2FD0 JUMP JUMPDEST SWAP1 PUSH1 0x0 MSTORE PUSH1 0x20 PUSH1 0x0 KECCAK256 SWAP1 PUSH1 0x4 MUL ADD PUSH1 0x3 ADD SLOAD PUSH1 0x1 DUP3 DUP2 SHR DUP3 DUP3 SHR ADD SWAP3 SWAP1 SWAP2 AND AND ADD SWAP1 JUMP JUMPDEST PUSH2 0x10A DUP1 SLOAD PUSH1 0x1 DUP2 DUP2 ADD DUP4 SSTORE PUSH1 0x0 SWAP3 DUP4 MSTORE PUSH32 0xC588BD85AF64879C0999911852D2549E38C750E7E4E194EB8891B0913E93B12C SWAP1 SWAP2 ADD DUP4 SWAP1 SSTORE PUSH2 0x108 SLOAD SWAP3 SWAP4 POP SWAP1 SWAP2 PUSH2 0x25F0 SWAP2 SWAP1 PUSH2 0x2E14 JUMP JUMPDEST PUSH1 0x1 PUSH2 0x108 SLOAD PUSH2 0x2600 SWAP2 SWAP1 PUSH2 0x2E14 JUMP JUMPDEST PUSH2 0x260A SWAP1 DUP5 PUSH2 0x2E41 JUMP JUMPDEST PUSH1 0x1 PUSH2 0x108 SLOAD PUSH2 0x261A SWAP2 SWAP1 PUSH2 0x2E14 JUMP JUMPDEST PUSH2 0x2624 SWAP1 DUP9 PUSH2 0x2E41 JUMP JUMPDEST PUSH2 0x262E SWAP2 SWAP1 PUSH2 0x2DFC JUMP JUMPDEST PUSH2 0x2638 SWAP2 SWAP1 PUSH2 0x2E41 JUMP JUMPDEST SWAP1 POP PUSH2 0x101 PUSH2 0x106 DUP3 DUP2 SLOAD DUP2 LT PUSH2 0x2651 JUMPI PUSH2 0x2651 PUSH2 0x2FD0 JUMP JUMPDEST SWAP1 PUSH1 0x0 MSTORE PUSH1 0x20 PUSH1 0x0 KECCAK256 ADD SLOAD DUP2 SLOAD DUP2 LT PUSH2 0x266C JUMPI PUSH2 0x266C PUSH2 0x2FD0 JUMP JUMPDEST SWAP1 PUSH1 0x0 MSTORE PUSH1 0x20 PUSH1 0x0 KECCAK256 SWAP1 PUSH1 0x4 MUL ADD PUSH1 0x0 ADD SLOAD PUSH2 0x101 PUSH1 0xFD SLOAD DUP2 SLOAD DUP2 LT PUSH2 0x2694 JUMPI PUSH2 0x2694 PUSH2 0x2FD0 JUMP JUMPDEST SWAP1 PUSH1 0x0 MSTORE PUSH1 0x20 PUSH1 0x0 KECCAK256 SWAP1 PUSH1 0x4 MUL ADD PUSH1 0x0 ADD SLOAD PUSH1 0x40 MLOAD PUSH1 0x20 ADD PUSH2 0x26C0 SWAP3 SWAP2 SWAP1 SWAP2 DUP3 MSTORE PUSH1 0x20 DUP3 ADD MSTORE PUSH1 0x40 ADD SWAP1 JUMP JUMPDEST PUSH1 0x40 MLOAD PUSH1 0x20 DUP2 DUP4 SUB SUB DUP2 MSTORE SWAP1 PUSH1 0x40 MSTORE DUP1 MLOAD SWAP1 PUSH1 0x20 ADD KECCAK256 SWAP3 POP PUSH32 0x7B4293207493837F08690BEFF4C164F645F39CC305A20EFF9743CD85E1B72F0E PUSH2 0x106 DUP3 DUP2 SLOAD DUP2 LT PUSH2 0x270D JUMPI PUSH2 0x270D PUSH2 0x2FD0 JUMP JUMPDEST PUSH1 0x0 SWAP2 DUP3 MSTORE PUSH1 0x20 SWAP2 DUP3 SWAP1 KECCAK256 ADD SLOAD PUSH1 0xFD SLOAD PUSH1 0x40 DUP1 MLOAD SWAP3 DUP4 MSTORE SWAP3 DUP3 ADD MSTORE ADD PUSH1 0x40 MLOAD DUP1 SWAP2 SUB SWAP1 LOG1 PUSH2 0x109 DUP1 SLOAD PUSH1 0x1 DUP2 ADD DUP3 SSTORE PUSH1 0x0 SWAP2 SWAP1 SWAP2 MSTORE PUSH32 0xD7F48D1C2D4FDCCEABEE32A4FD1437F382C65F0F9AF09A878C95C20147DC06A8 ADD DUP2 SWAP1 SSTORE PUSH1 0xFD SLOAD PUSH2 0x101 DUP1 SLOAD PUSH2 0x27D7 SWAP3 ADDRESS SWAP3 SWAP2 DUP2 LT PUSH2 0x2784 JUMPI PUSH2 0x2784 PUSH2 0x2FD0 JUMP JUMPDEST SWAP1 PUSH1 0x0 MSTORE PUSH1 0x20 PUSH1 0x0 KECCAK256 SWAP1 PUSH1 0x4 MUL ADD PUSH1 0x2 ADD PUSH1 0x0 SWAP1 SLOAD SWAP1 PUSH2 0x100 EXP SWAP1 DIV PUSH1 0x1 PUSH1 0x1 PUSH1 0xA0 SHL SUB AND DUP6 PUSH2 0x101 PUSH1 0xFD SLOAD DUP2 SLOAD DUP2 LT PUSH2 0x27C0 JUMPI PUSH2 0x27C0 PUSH2 0x2FD0 JUMP JUMPDEST SWAP1 PUSH1 0x0 MSTORE PUSH1 0x20 PUSH1 0x0 KECCAK256 SWAP1 PUSH1 0x4 MUL ADD PUSH1 0x1 ADD SLOAD PUSH2 0x29B8 JUMP JUMPDEST POP PUSH1 0x0 PUSH2 0x102 PUSH1 0x0 PUSH2 0x101 PUSH1 0xFD SLOAD DUP2 SLOAD DUP2 LT PUSH2 0x27F5 JUMPI PUSH2 0x27F5 PUSH2 0x2FD0 JUMP JUMPDEST SWAP1 PUSH1 0x0 MSTORE PUSH1 0x20 PUSH1 0x0 KECCAK256 SWAP1 PUSH1 0x4 MUL ADD PUSH1 0x0 ADD SLOAD DUP2 MSTORE PUSH1 0x20 ADD SWAP1 DUP2 MSTORE PUSH1 0x20 ADD PUSH1 0x0 KECCAK256 SWAP1 POP DUP4 DUP2 PUSH1 0x2 ADD DUP2 SWAP1 SSTORE POP PUSH1 0xFD PUSH1 0x0 DUP2 SLOAD DUP1 SWAP3 SWAP2 SWAP1 PUSH2 0x2833 SWAP1 PUSH2 0x2FB5 JUMP JUMPDEST SWAP1 SWAP2 SSTORE POP POP PUSH2 0x106 DUP1 SLOAD PUSH1 0x0 SWAP2 SWAP1 PUSH2 0x284D SWAP1 PUSH1 0x1 SWAP1 PUSH2 0x2E14 JUMP JUMPDEST DUP2 SLOAD DUP2 LT PUSH2 0x285D JUMPI PUSH2 0x285D PUSH2 0x2FD0 JUMP JUMPDEST SWAP1 PUSH1 0x0 MSTORE PUSH1 0x20 PUSH1 0x0 KECCAK256 ADD SLOAD SWAP1 POP PUSH2 0x106 DUP4 DUP2 SLOAD DUP2 LT PUSH2 0x287E JUMPI PUSH2 0x287E PUSH2 0x2FD0 JUMP JUMPDEST PUSH1 0x0 SWAP2 DUP3 MSTORE PUSH1 0x20 SWAP1 SWAP2 KECCAK256 ADD SLOAD PUSH2 0x106 DUP1 SLOAD PUSH2 0x289B SWAP1 PUSH1 0x1 SWAP1 PUSH2 0x2E14 JUMP JUMPDEST DUP2 SLOAD DUP2 LT PUSH2 0x28AB JUMPI PUSH2 0x28AB PUSH2 0x2FD0 JUMP JUMPDEST SWAP1 PUSH1 0x0 MSTORE PUSH1 0x20 PUSH1 0x0 KECCAK256 ADD DUP2 SWAP1 SSTORE POP DUP1 PUSH2 0x106 DUP5 DUP2 SLOAD DUP2 LT PUSH2 0x28CE JUMPI PUSH2 0x28CE PUSH2 0x2FD0 JUMP JUMPDEST PUSH1 0x0 SWAP2 DUP3 MSTORE PUSH1 0x20 SWAP1 SWAP2 KECCAK256 ADD SSTORE PUSH2 0x106 DUP1 SLOAD DUP1 PUSH2 0x28EC JUMPI PUSH2 0x28EC PUSH2 0x3016 JUMP JUMPDEST PUSH1 0x1 SWAP1 SUB DUP2 DUP2 SWAP1 PUSH1 0x0 MSTORE PUSH1 0x20 PUSH1 0x0 KECCAK256 ADD PUSH1 0x0 SWAP1 SSTORE SWAP1 SSTORE POP POP POP POP SWAP3 SWAP2 POP POP JUMP JUMPDEST PUSH1 0x60 DUP4 ISZERO PUSH2 0x291B JUMPI POP DUP2 PUSH2 0xA6B JUMP JUMPDEST DUP3 MLOAD ISZERO PUSH2 0x292B JUMPI DUP3 MLOAD DUP1 DUP5 PUSH1 0x20 ADD REVERT JUMPDEST DUP2 PUSH1 0x40 MLOAD PUSH3 0x461BCD PUSH1 0xE5 SHL DUP2 MSTORE PUSH1 0x4 ADD PUSH2 0x268 SWAP2 SWAP1 PUSH2 0x2B56 JUMP JUMPDEST DUP3 DUP2 DUP2 MLOAD DUP2 LT PUSH2 0x2957 JUMPI PUSH2 0x2957 PUSH2 0x2FD0 JUMP JUMPDEST PUSH1 0x20 MUL PUSH1 0x20 ADD ADD MLOAD DUP4 DUP4 DUP2 MLOAD DUP2 LT PUSH2 0x2971 JUMPI PUSH2 0x2971 PUSH2 0x2FD0 JUMP JUMPDEST PUSH1 0x20 MUL PUSH1 0x20 ADD ADD MLOAD DUP5 DUP5 DUP2 MLOAD DUP2 LT PUSH2 0x298B JUMPI PUSH2 0x298B PUSH2 0x2FD0 JUMP JUMPDEST PUSH1 0x20 MUL PUSH1 0x20 ADD ADD DUP6 DUP5 DUP2 MLOAD DUP2 LT PUSH2 0x29A4 JUMPI PUSH2 0x29A4 PUSH2 0x2FD0 JUMP JUMPDEST PUSH1 0x20 SWAP1 DUP2 MUL SWAP2 SWAP1 SWAP2 ADD ADD SWAP2 SWAP1 SWAP2 MSTORE MSTORE POP POP POP JUMP JUMPDEST PUSH1 0x0 DUP2 DUP2 MSTORE PUSH2 0x104 PUSH1 0x20 MSTORE PUSH1 0x40 DUP2 KECCAK256 PUSH2 0x29E7 DUP7 DUP7 PUSH2 0x29E2 PUSH2 0x29D7 PUSH2 0xC92 JUMP JUMPDEST DUP6 SLOAD PUSH2 0xCC3 SWAP1 PUSH2 0x1AC6 JUMP JUMPDEST PUSH2 0x1744 JUMP JUMPDEST PUSH1 0x40 MLOAD DUP5 DUP2 MSTORE PUSH32 0xA9C0B090DEE2FF09B343510632A695F8F43912CFCEE1BBA7DBB38B23102E2880 SWAP1 PUSH1 0x20 ADD PUSH1 0x40 MLOAD DUP1 SWAP2 SUB SWAP1 LOG1 POP PUSH1 0x1 SWAP6 SWAP5 POP POP POP POP POP JUMP JUMPDEST POP DUP1 SLOAD PUSH1 0x0 DUP3 SSTORE SWAP1 PUSH1 0x0 MSTORE PUSH1 0x20 PUSH1 0x0 KECCAK256 SWAP1 DUP2 ADD SWAP1 PUSH2 0xB0D SWAP2 SWAP1 PUSH2 0x2AC8 JUMP JUMPDEST DUP3 DUP1 SLOAD PUSH2 0x2A50 SWAP1 PUSH2 0x2D76 JUMP JUMPDEST SWAP1 PUSH1 0x0 MSTORE PUSH1 0x20 PUSH1 0x0 KECCAK256 SWAP1 PUSH1 0x1F ADD PUSH1 0x20 SWAP1 DIV DUP2 ADD SWAP3 DUP3 PUSH2 0x2A72 JUMPI PUSH1 0x0 DUP6 SSTORE PUSH2 0x2AB8 JUMP JUMPDEST DUP3 PUSH1 0x1F LT PUSH2 0x2A8B JUMPI DUP1 MLOAD PUSH1 0xFF NOT AND DUP4 DUP1 ADD OR DUP6 SSTORE PUSH2 0x2AB8 JUMP JUMPDEST DUP3 DUP1 ADD PUSH1 0x1 ADD DUP6 SSTORE DUP3 ISZERO PUSH2 0x2AB8 JUMPI SWAP2 DUP3 ADD JUMPDEST DUP3 DUP2 GT ISZERO PUSH2 0x2AB8 JUMPI DUP3 MLOAD DUP3 SSTORE SWAP2 PUSH1 0x20 ADD SWAP2 SWAP1 PUSH1 0x1 ADD SWAP1 PUSH2 0x2A9D JUMP JUMPDEST POP PUSH2 0x2AC4 SWAP3 SWAP2 POP PUSH2 0x2AC8 JUMP JUMPDEST POP SWAP1 JUMP JUMPDEST JUMPDEST DUP1 DUP3 GT ISZERO PUSH2 0x2AC4 JUMPI PUSH1 0x0 DUP2 SSTORE PUSH1 0x1 ADD PUSH2 0x2AC9 JUMP JUMPDEST PUSH1 0x20 DUP1 DUP3 MSTORE PUSH1 0x1F SWAP1 DUP3 ADD MSTORE PUSH32 0x4E6F7420616C6C6F772072652D656E7472616E63792C20547279204167696E00 PUSH1 0x40 DUP3 ADD MSTORE PUSH1 0x60 ADD SWAP1 JUMP JUMPDEST PUSH4 0x4E487B71 PUSH1 0xE0 SHL PUSH1 0x0 MSTORE PUSH1 0x1 PUSH1 0x4 MSTORE PUSH1 0x24 PUSH1 0x0 REVERT JUMPDEST PUSH1 0x0 JUMPDEST DUP4 DUP2 LT ISZERO PUSH2 0x2B45 JUMPI DUP2 DUP2 ADD MLOAD DUP4 DUP3 ADD MSTORE PUSH1 0x20 ADD PUSH2 0x2B2D JUMP JUMPDEST DUP4 DUP2 GT ISZERO PUSH2 0x190E JUMPI POP POP PUSH1 0x0 SWAP2 ADD MSTORE JUMP JUMPDEST PUSH1 0x20 DUP2 MSTORE PUSH1 0x0 DUP3 MLOAD DUP1 PUSH1 0x20 DUP5 ADD MSTORE PUSH2 0x2B75 DUP2 PUSH1 0x40 DUP6 ADD PUSH1 0x20 DUP8 ADD PUSH2 0x2B2A JUMP JUMPDEST PUSH1 0x1F ADD PUSH1 0x1F NOT AND SWAP2 SWAP1 SWAP2 ADD PUSH1 0x40 ADD SWAP3 SWAP2 POP POP JUMP JUMPDEST PUSH1 0x1 PUSH1 0x1 PUSH1 0xA0 SHL SUB DUP2 AND DUP2 EQ PUSH2 0xB0D JUMPI PUSH1 0x0 DUP1 REVERT JUMPDEST PUSH1 0x0 DUP1 PUSH1 0x40 DUP4 DUP6 SUB SLT ISZERO PUSH2 0x2BB1 JUMPI PUSH1 0x0 DUP1 REVERT JUMPDEST DUP3 CALLDATALOAD PUSH2 0x2BBC DUP2 PUSH2 0x2B89 JUMP JUMPDEST SWAP5 PUSH1 0x20 SWAP4 SWAP1 SWAP4 ADD CALLDATALOAD SWAP4 POP POP POP JUMP JUMPDEST PUSH1 0x0 DUP1 PUSH1 0x0 PUSH1 0x60 DUP5 DUP7 SUB SLT ISZERO PUSH2 0x2BDF JUMPI PUSH1 0x0 DUP1 REVERT JUMPDEST DUP4 CALLDATALOAD PUSH2 0x2BEA DUP2 PUSH2 0x2B89 JUMP JUMPDEST SWAP3 POP PUSH1 0x20 DUP5 ADD CALLDATALOAD PUSH2 0x2BFA DUP2 PUSH2 0x2B89 JUMP JUMPDEST SWAP3 SWAP6 SWAP3 SWAP5 POP POP POP PUSH1 0x40 SWAP2 SWAP1 SWAP2 ADD CALLDATALOAD SWAP1 JUMP JUMPDEST PUSH1 0x0 PUSH1 0x20 DUP3 DUP5 SUB SLT ISZERO PUSH2 0x2C1D JUMPI PUSH1 0x0 DUP1 REVERT JUMPDEST POP CALLDATALOAD SWAP2 SWAP1 POP JUMP JUMPDEST PUSH1 0x0 PUSH1 0x20 DUP3 DUP5 SUB SLT ISZERO PUSH2 0x2C36 JUMPI PUSH1 0x0 DUP1 REVERT JUMPDEST DUP2 CALLDATALOAD PUSH2 0xA6B DUP2 PUSH2 0x2B89 JUMP JUMPDEST PUSH1 0x0 DUP1 PUSH1 0x40 DUP4 DUP6 SUB SLT ISZERO PUSH2 0x2C54 JUMPI PUSH1 0x0 DUP1 REVERT JUMPDEST POP POP DUP1 CALLDATALOAD SWAP3 PUSH1 0x20 SWAP1 SWAP2 ADD CALLDATALOAD SWAP2 POP JUMP JUMPDEST PUSH4 0x4E487B71 PUSH1 0xE0 SHL PUSH1 0x0 MSTORE PUSH1 0x41 PUSH1 0x4 MSTORE PUSH1 0x24 PUSH1 0x0 REVERT JUMPDEST PUSH1 0x0 DUP1 PUSH1 0x40 DUP4 DUP6 SUB SLT ISZERO PUSH2 0x2C8C JUMPI PUSH1 0x0 DUP1 REVERT JUMPDEST DUP3 CALLDATALOAD PUSH2 0x2C97 DUP2 PUSH2 0x2B89 JUMP JUMPDEST SWAP2 POP PUSH1 0x20 DUP4 ADD CALLDATALOAD PUSH8 0xFFFFFFFFFFFFFFFF DUP1 DUP3 GT ISZERO PUSH2 0x2CB4 JUMPI PUSH1 0x0 DUP1 REVERT JUMPDEST DUP2 DUP6 ADD SWAP2 POP DUP6 PUSH1 0x1F DUP4 ADD SLT PUSH2 0x2CC8 JUMPI PUSH1 0x0 DUP1 REVERT JUMPDEST DUP2 CALLDATALOAD DUP2 DUP2 GT ISZERO PUSH2 0x2CDA JUMPI PUSH2 0x2CDA PUSH2 0x2C63 JUMP JUMPDEST PUSH1 0x40 MLOAD PUSH1 0x1F DUP3 ADD PUSH1 0x1F NOT SWAP1 DUP2 AND PUSH1 0x3F ADD AND DUP2 ADD SWAP1 DUP4 DUP3 GT DUP2 DUP4 LT OR ISZERO PUSH2 0x2D02 JUMPI PUSH2 0x2D02 PUSH2 0x2C63 JUMP JUMPDEST DUP2 PUSH1 0x40 MSTORE DUP3 DUP2 MSTORE DUP9 PUSH1 0x20 DUP5 DUP8 ADD ADD GT ISZERO PUSH2 0x2D1B JUMPI PUSH1 0x0 DUP1 REVERT JUMPDEST DUP3 PUSH1 0x20 DUP7 ADD PUSH1 0x20 DUP4 ADD CALLDATACOPY PUSH1 0x0 PUSH1 0x20 DUP5 DUP4 ADD ADD MSTORE DUP1 SWAP6 POP POP POP POP POP POP SWAP3 POP SWAP3 SWAP1 POP JUMP JUMPDEST PUSH1 0x0 DUP1 PUSH1 0x40 DUP4 DUP6 SUB SLT ISZERO PUSH2 0x2D50 JUMPI PUSH1 0x0 DUP1 REVERT JUMPDEST DUP3 CALLDATALOAD PUSH2 0x2D5B DUP2 PUSH2 0x2B89 JUMP JUMPDEST SWAP2 POP PUSH1 0x20 DUP4 ADD CALLDATALOAD PUSH2 0x2D6B DUP2 PUSH2 0x2B89 JUMP JUMPDEST DUP1 SWAP2 POP POP SWAP3 POP SWAP3 SWAP1 POP JUMP JUMPDEST PUSH1 0x1 DUP2 DUP2 SHR SWAP1 DUP3 AND DUP1 PUSH2 0x2D8A JUMPI PUSH1 0x7F DUP3 AND SWAP2 POP JUMPDEST PUSH1 0x20 DUP3 LT DUP2 EQ ISZERO PUSH2 0x2DAB JUMPI PUSH4 0x4E487B71 PUSH1 0xE0 SHL PUSH1 0x0 MSTORE PUSH1 0x22 PUSH1 0x4 MSTORE PUSH1 0x24 PUSH1 0x0 REVERT JUMPDEST POP SWAP2 SWAP1 POP JUMP JUMPDEST PUSH1 0x20 DUP1 DUP3 MSTORE DUP2 DUP2 ADD MSTORE PUSH32 0x4F776E61626C653A2063616C6C6572206973206E6F7420746865206F776E6572 PUSH1 0x40 DUP3 ADD MSTORE PUSH1 0x60 ADD SWAP1 JUMP JUMPDEST PUSH4 0x4E487B71 PUSH1 0xE0 SHL PUSH1 0x0 MSTORE PUSH1 0x11 PUSH1 0x4 MSTORE PUSH1 0x24 PUSH1 0x0 REVERT JUMPDEST PUSH1 0x0 DUP3 NOT DUP3 GT ISZERO PUSH2 0x2E0F JUMPI PUSH2 0x2E0F PUSH2 0x2DE6 JUMP JUMPDEST POP ADD SWAP1 JUMP JUMPDEST PUSH1 0x0 DUP3 DUP3 LT ISZERO PUSH2 0x2E26 JUMPI PUSH2 0x2E26 PUSH2 0x2DE6 JUMP JUMPDEST POP SUB SWAP1 JUMP JUMPDEST PUSH4 0x4E487B71 PUSH1 0xE0 SHL PUSH1 0x0 MSTORE PUSH1 0x12 PUSH1 0x4 MSTORE PUSH1 0x24 PUSH1 0x0 REVERT JUMPDEST PUSH1 0x0 DUP3 PUSH2 0x2E50 JUMPI PUSH2 0x2E50 PUSH2 0x2E2B JUMP JUMPDEST POP MOD SWAP1 JUMP JUMPDEST PUSH1 0x20 DUP1 DUP3 MSTORE PUSH1 0x2E SWAP1 DUP3 ADD MSTORE PUSH32 0x496E697469616C697A61626C653A20636F6E747261637420697320616C726561 PUSH1 0x40 DUP3 ADD MSTORE PUSH14 0x191E481A5B9A5D1A585B1A5E9959 PUSH1 0x92 SHL PUSH1 0x60 DUP3 ADD MSTORE PUSH1 0x80 ADD SWAP1 JUMP JUMPDEST PUSH1 0x1 DUP2 DUP2 JUMPDEST DUP1 DUP6 GT ISZERO PUSH2 0x2EDE JUMPI DUP2 PUSH1 0x0 NOT DIV DUP3 GT ISZERO PUSH2 0x2EC4 JUMPI PUSH2 0x2EC4 PUSH2 0x2DE6 JUMP JUMPDEST DUP1 DUP6 AND ISZERO PUSH2 0x2ED1 JUMPI SWAP2 DUP2 MUL SWAP2 JUMPDEST SWAP4 DUP5 SHR SWAP4 SWAP1 DUP1 MUL SWAP1 PUSH2 0x2EA8 JUMP JUMPDEST POP SWAP3 POP SWAP3 SWAP1 POP JUMP JUMPDEST PUSH1 0x0 DUP3 PUSH2 0x2EF5 JUMPI POP PUSH1 0x1 PUSH2 0x9C0 JUMP JUMPDEST DUP2 PUSH2 0x2F02 JUMPI POP PUSH1 0x0 PUSH2 0x9C0 JUMP JUMPDEST DUP2 PUSH1 0x1 DUP2 EQ PUSH2 0x2F18 JUMPI PUSH1 0x2 DUP2 EQ PUSH2 0x2F22 JUMPI PUSH2 0x2F3E JUMP JUMPDEST PUSH1 0x1 SWAP2 POP POP PUSH2 0x9C0 JUMP JUMPDEST PUSH1 0xFF DUP5 GT ISZERO PUSH2 0x2F33 JUMPI PUSH2 0x2F33 PUSH2 0x2DE6 JUMP JUMPDEST POP POP PUSH1 0x1 DUP3 SHL PUSH2 0x9C0 JUMP JUMPDEST POP PUSH1 0x20 DUP4 LT PUSH2 0x133 DUP4 LT AND PUSH1 0x4E DUP5 LT PUSH1 0xB DUP5 LT AND OR ISZERO PUSH2 0x2F61 JUMPI POP DUP2 DUP2 EXP PUSH2 0x9C0 JUMP JUMPDEST PUSH2 0x2F6B DUP4 DUP4 PUSH2 0x2EA3 JUMP JUMPDEST DUP1 PUSH1 0x0 NOT DIV DUP3 GT ISZERO PUSH2 0x2F7F JUMPI PUSH2 0x2F7F PUSH2 0x2DE6 JUMP JUMPDEST MUL SWAP4 SWAP3 POP POP POP JUMP JUMPDEST PUSH1 0x0 PUSH2 0xA6B PUSH1 0xFF DUP5 AND DUP4 PUSH2 0x2EE6 JUMP JUMPDEST PUSH1 0x0 DUP2 PUSH1 0x0 NOT DIV DUP4 GT DUP3 ISZERO ISZERO AND ISZERO PUSH2 0x2FB0 JUMPI PUSH2 0x2FB0 PUSH2 0x2DE6 JUMP JUMPDEST POP MUL SWAP1 JUMP JUMPDEST PUSH1 0x0 PUSH1 0x0 NOT DUP3 EQ ISZERO PUSH2 0x2FC9 JUMPI PUSH2 0x2FC9 PUSH2 0x2DE6 JUMP JUMPDEST POP PUSH1 0x1 ADD SWAP1 JUMP JUMPDEST PUSH4 0x4E487B71 PUSH1 0xE0 SHL PUSH1 0x0 MSTORE PUSH1 0x32 PUSH1 0x4 MSTORE PUSH1 0x24 PUSH1 0x0 REVERT JUMPDEST PUSH1 0x0 DUP3 PUSH2 0x2FF5 JUMPI PUSH2 0x2FF5 PUSH2 0x2E2B JUMP JUMPDEST POP DIV SWAP1 JUMP JUMPDEST PUSH1 0x0 DUP3 MLOAD PUSH2 0x300C DUP2 DUP5 PUSH1 0x20 DUP8 ADD PUSH2 0x2B2A JUMP JUMPDEST SWAP2 SWAP1 SWAP2 ADD SWAP3 SWAP2 POP POP JUMP JUMPDEST PUSH4 0x4E487B71 PUSH1 0xE0 SHL PUSH1 0x0 MSTORE PUSH1 0x31 PUSH1 0x4 MSTORE PUSH1 0x24 PUSH1 0x0 REVERT INVALID COINBASE PUSH5 0x6472657373 GASPRICE KECCAK256 PUSH13 0x6F772D6C6576656C2064656C65 PUSH8 0x6174652063616C6C KECCAK256 PUSH7 0x61696C6564A264 PUSH10 0x706673582212206E723E SWAP4 0xD0 ISZERO SHL 0xEB SWAP1 0xC7 0x21 MOD EXTCODESIZE 0xF9 CREATE CALL SWAP16 0xC8 CALLVALUE 0xCD 0xBC 0xAA 0xCA 0xCB MOD 0xC1 EXTCODECOPY 0xEE SLOAD PUSH15 0x20F64736F6C634300080900330000 "
		},
		"gasEstimates": {
			"creation": {
				"codeDepositCost": "2485000",
				"executionCost": "26886",
				"totalCost": "2511886"
			},
			"external": {
				"": "54277",
				"AllocationInterval()": "2341",
				"Array_EntropyChain(uint256)": "11084",
				"Assigned_EntropyChain(uint256)": "4643",
				"Assigned_EntropyChain_length()": "2386",
				"DonationWithdraw(address,uint256)": "infinite",
				"EntropyByUsers(bytes32)": "infinite",
				"FormationNumber()": "2408",
				"InitToken()": "2406",
				"RecentRevealEntropyNumber()": "2407",
				"SetAllocationInterval(uint256)": "53039",
				"SetUpcomingRevealBlockNo(uint256)": "53083",
				"allowance(address,address)": "infinite",
				"approve(address,uint256)": "24660",
				"balanceOf(address)": "2621",
				"creationEpoch()": "2405",
				"decimals()": "311",
				"decreaseAllowance(address,uint256)": "27015",
				"increaseAllowance(address,uint256)": "26997",
				"initialize()": "infinite",
				"keccak256Test(bytes32,bytes32)": "588",
				"medianAvg_mod(uint256)": "4708",
				"minMaxAvr(uint256)": "4620",
				"name()": "infinite",
				"numberLatestUsersEntropy()": "2384",
				"owner()": "2390",
				"renounceOwnership()": "28229",
				"rewardsPerBlock()": "infinite",
				"setInitToken(uint256)": "53014",
				"set_FormationNumber(uint256)": "79412",
				"struct_EntropyRegister_ID(bytes32)": "6809",
				"struct_accountTxCount_ID(address)": "4812",
				"struct_block_ID(uint256)": "2504",
				"symbol()": "infinite",
				"totalSupply()": "2427",
				"transfer(address,uint256)": "51222",
				"transferFrom(address,address,uint256)": "infinite",
				"transferOwnership(address)": "infinite",
				"upcomingRevealBlockNo()": "2339",
				"upgradeTo(address)": "infinite",
				"upgradeToAndCall(address,bytes)": "infinite"
			},
			"internal": {
				"_authorizeUpgrade(address)": "infinite",
				"_transferToken_(address,address,bytes32,uint256)": "infinite",
				"combinEntropyMedian(uint256)": "infinite",
				"get_average(uint256,uint256)": "179",
				"mathMedian(uint256[] memory,uint256)": "infinite",
				"register_InToChain(bytes32,uint256,uint256)": "infinite",
				"rewardsPerYear(uint256,uint256)": "infinite",
				"sort(uint256[] memory,uint256,uint256)": "infinite",
				"swap(uint256[] memory,uint256,uint256)": "infinite"
			}
		},
		"methodIdentifiers": {
			"AllocationInterval()": "1cc4a4f6",
			"Array_EntropyChain(uint256)": "a45cdbf0",
			"Assigned_EntropyChain(uint256)": "6d895022",
			"Assigned_EntropyChain_length()": "0b563364",
			"DonationWithdraw(address,uint256)": "57d3eb2b",
			"EntropyByUsers(bytes32)": "c08d6f58",
			"FormationNumber()": "0e63b00d",
			"InitToken()": "be4cd1a3",
			"RecentRevealEntropyNumber()": "3c268fa9",
			"SetAllocationInterval(uint256)": "27f25ee1",
			"SetUpcomingRevealBlockNo(uint256)": "758fd17e",
			"allowance(address,address)": "dd62ed3e",
			"approve(address,uint256)": "095ea7b3",
			"balanceOf(address)": "70a08231",
			"creationEpoch()": "e8e384da",
			"decimals()": "313ce567",
			"decreaseAllowance(address,uint256)": "a457c2d7",
			"increaseAllowance(address,uint256)": "39509351",
			"initialize()": "8129fc1c",
			"keccak256Test(bytes32,bytes32)": "3ddbda30",
			"medianAvg_mod(uint256)": "68f87159",
			"minMaxAvr(uint256)": "7a682010",
			"name()": "06fdde03",
			"numberLatestUsersEntropy()": "b6f1de95",
			"owner()": "8da5cb5b",
			"renounceOwnership()": "715018a6",
			"rewardsPerBlock()": "5eeb6710",
			"setInitToken(uint256)": "58784076",
			"set_FormationNumber(uint256)": "69ddcb1b",
			"struct_EntropyRegister_ID(bytes32)": "3bbea80d",
			"struct_accountTxCount_ID(address)": "2dfe9942",
			"struct_block_ID(uint256)": "dd0e5da5",
			"symbol()": "95d89b41",
			"totalSupply()": "18160ddd",
			"transfer(address,uint256)": "a9059cbb",
			"transferFrom(address,address,uint256)": "23b872dd",
			"transferOwnership(address)": "f2fde38b",
			"upcomingRevealBlockNo()": "d56ac1a1",
			"upgradeTo(address)": "3659cfe6",
			"upgradeToAndCall(address,bytes)": "4f1ef286"
		}
	},
	"abi": [
		{
			"inputs": [
				{
					"internalType": "uint256",
					"name": "x",
					"type": "uint256"
				}
			],
			"name": "PRBMathUD60x18__FromUintOverflow",
			"type": "error"
		},
		{
			"inputs": [
				{
					"internalType": "uint256",
					"name": "prod1",
					"type": "uint256"
				}
			],
			"name": "PRBMath__MulDivFixedPointOverflow",
			"type": "error"
		},
		{
			"inputs": [
				{
					"internalType": "uint256",
					"name": "prod1",
					"type": "uint256"
				},
				{
					"internalType": "uint256",
					"name": "denominator",
					"type": "uint256"
				}
			],
			"name": "PRBMath__MulDivOverflow",
			"type": "error"
		},
		{
			"anonymous": false,
			"inputs": [
				{
					"indexed": false,
					"internalType": "address",
					"name": "previousAdmin",
					"type": "address"
				},
				{
					"indexed": false,
					"internalType": "address",
					"name": "newAdmin",
					"type": "address"
				}
			],
			"name": "AdminChanged",
			"type": "event"
		},
		{
			"anonymous": false,
			"inputs": [
				{
					"indexed": true,
					"internalType": "address",
					"name": "owner",
					"type": "address"
				},
				{
					"indexed": true,
					"internalType": "address",
					"name": "spender",
					"type": "address"
				},
				{
					"indexed": false,
					"internalType": "uint256",
					"name": "value",
					"type": "uint256"
				}
			],
			"name": "Approval",
			"type": "event"
		},
		{
			"anonymous": false,
			"inputs": [
				{
					"indexed": false,
					"internalType": "uint256",
					"name": "_moduloAssigned_EntropyChain_",
					"type": "uint256"
				},
				{
					"indexed": false,
					"internalType": "uint256",
					"name": "_RecentRevealEntropyNumber_",
					"type": "uint256"
				}
			],
			"name": "Assigned_EntropyChain_number",
			"type": "event"
		},
		{
			"anonymous": false,
			"inputs": [
				{
					"indexed": true,
					"internalType": "address",
					"name": "beacon",
					"type": "address"
				}
			],
			"name": "BeaconUpgraded",
			"type": "event"
		},
		{
			"anonymous": false,
			"inputs": [
				{
					"indexed": false,
					"internalType": "bytes32",
					"name": "",
					"type": "bytes32"
				}
			],
			"name": "Contract_Reveal_Entropy",
			"type": "event"
		},
		{
			"anonymous": false,
			"inputs": [
				{
					"indexed": false,
					"internalType": "address",
					"name": "",
					"type": "address"
				},
				{
					"indexed": false,
					"internalType": "uint256",
					"name": "",
					"type": "uint256"
				}
			],
			"name": "F_fallback",
			"type": "event"
		},
		{
			"anonymous": false,
			"inputs": [
				{
					"indexed": false,
					"internalType": "uint8",
					"name": "",
					"type": "uint8"
				},
				{
					"indexed": false,
					"internalType": "address",
					"name": "",
					"type": "address"
				},
				{
					"indexed": false,
					"internalType": "uint256",
					"name": "",
					"type": "uint256"
				},
				{
					"indexed": false,
					"internalType": "bytes4",
					"name": "",
					"type": "bytes4"
				}
			],
			"name": "F_receive",
			"type": "event"
		},
		{
			"anonymous": false,
			"inputs": [
				{
					"indexed": true,
					"internalType": "address",
					"name": "previousOwner",
					"type": "address"
				},
				{
					"indexed": true,
					"internalType": "address",
					"name": "newOwner",
					"type": "address"
				}
			],
			"name": "OwnershipTransferred",
			"type": "event"
		},
		{
			"anonymous": false,
			"inputs": [
				{
					"indexed": true,
					"internalType": "address",
					"name": "from",
					"type": "address"
				},
				{
					"indexed": true,
					"internalType": "address",
					"name": "to",
					"type": "address"
				},
				{
					"indexed": false,
					"internalType": "uint256",
					"name": "value",
					"type": "uint256"
				}
			],
			"name": "Transfer",
			"type": "event"
		},
		{
			"anonymous": false,
			"inputs": [
				{
					"indexed": true,
					"internalType": "address",
					"name": "implementation",
					"type": "address"
				}
			],
			"name": "Upgraded",
			"type": "event"
		},
		{
			"stateMutability": "payable",
			"type": "fallback"
		},
		{
			"inputs": [],
			"name": "AllocationInterval",
			"outputs": [
				{
					"internalType": "uint256",
					"name": "",
					"type": "uint256"
				}
			],
			"stateMutability": "view",
			"type": "function"
		},
		{
			"inputs": [
				{
					"internalType": "uint256",
					"name": "",
					"type": "uint256"
				}
			],
			"name": "Array_EntropyChain",
			"outputs": [
				{
					"internalType": "bytes32",
					"name": "entropyByUsers",
					"type": "bytes32"
				},
				{
					"internalType": "uint256",
					"name": "entropyByBlockNumber",
					"type": "uint256"
				},
				{
					"internalType": "address",
					"name": "SourceAddress",
					"type": "address"
				},
				{
					"internalType": "uint256",
					"name": "leftgas",
					"type": "uint256"
				}
			],
			"stateMutability": "view",
			"type": "function"
		},
		{
			"inputs": [
				{
					"internalType": "uint256",
					"name": "",
					"type": "uint256"
				}
			],
			"name": "Assigned_EntropyChain",
			"outputs": [
				{
					"internalType": "uint256",
					"name": "",
					"type": "uint256"
				}
			],
			"stateMutability": "view",
			"type": "function"
		},
		{
			"inputs": [],
			"name": "Assigned_EntropyChain_length",
			"outputs": [
				{
					"internalType": "uint256",
					"name": "",
					"type": "uint256"
				}
			],
			"stateMutability": "view",
			"type": "function"
		},
		{
			"inputs": [
				{
					"internalType": "address payable",
					"name": "_recipient",
					"type": "address"
				},
				{
					"internalType": "uint256",
					"name": "_amount",
					"type": "uint256"
				}
			],
			"name": "DonationWithdraw",
			"outputs": [],
			"stateMutability": "nonpayable",
			"type": "function"
		},
		{
			"inputs": [
				{
					"internalType": "bytes32",
					"name": "_usersHexData",
					"type": "bytes32"
				}
			],
			"name": "EntropyByUsers",
			"outputs": [],
			"stateMutability": "nonpayable",
			"type": "function"
		},
		{
			"inputs": [],
			"name": "FormationNumber",
			"outputs": [
				{
					"internalType": "uint256",
					"name": "",
					"type": "uint256"
				}
			],
			"stateMutability": "view",
			"type": "function"
		},
		{
			"inputs": [],
			"name": "InitToken",
			"outputs": [
				{
					"internalType": "uint256",
					"name": "",
					"type": "uint256"
				}
			],
			"stateMutability": "view",
			"type": "function"
		},
		{
			"inputs": [],
			"name": "RecentRevealEntropyNumber",
			"outputs": [
				{
					"internalType": "uint256",
					"name": "",
					"type": "uint256"
				}
			],
			"stateMutability": "view",
			"type": "function"
		},
		{
			"inputs": [
				{
					"internalType": "uint256",
					"name": "_blockTargerTime",
					"type": "uint256"
				}
			],
			"name": "SetAllocationInterval",
			"outputs": [],
			"stateMutability": "nonpayable",
			"type": "function"
		},
		{
			"inputs": [
				{
					"internalType": "uint256",
					"name": "_upcomingRevealBlockNo",
					"type": "uint256"
				}
			],
			"name": "SetUpcomingRevealBlockNo",
			"outputs": [],
			"stateMutability": "nonpayable",
			"type": "function"
		},
		{
			"inputs": [
				{
					"internalType": "address",
					"name": "owner",
					"type": "address"
				},
				{
					"internalType": "address",
					"name": "spender",
					"type": "address"
				}
			],
			"name": "allowance",
			"outputs": [
				{
					"internalType": "uint256",
					"name": "",
					"type": "uint256"
				}
			],
			"stateMutability": "view",
			"type": "function"
		},
		{
			"inputs": [
				{
					"internalType": "address",
					"name": "spender",
					"type": "address"
				},
				{
					"internalType": "uint256",
					"name": "amount",
					"type": "uint256"
				}
			],
			"name": "approve",
			"outputs": [
				{
					"internalType": "bool",
					"name": "",
					"type": "bool"
				}
			],
			"stateMutability": "nonpayable",
			"type": "function"
		},
		{
			"inputs": [
				{
					"internalType": "address",
					"name": "account",
					"type": "address"
				}
			],
			"name": "balanceOf",
			"outputs": [
				{
					"internalType": "uint256",
					"name": "",
					"type": "uint256"
				}
			],
			"stateMutability": "view",
			"type": "function"
		},
		{
			"inputs": [],
			"name": "creationEpoch",
			"outputs": [
				{
					"internalType": "uint256",
					"name": "",
					"type": "uint256"
				}
			],
			"stateMutability": "view",
			"type": "function"
		},
		{
			"inputs": [],
			"name": "decimals",
			"outputs": [
				{
					"internalType": "uint8",
					"name": "",
					"type": "uint8"
				}
			],
			"stateMutability": "view",
			"type": "function"
		},
		{
			"inputs": [
				{
					"internalType": "address",
					"name": "spender",
					"type": "address"
				},
				{
					"internalType": "uint256",
					"name": "subtractedValue",
					"type": "uint256"
				}
			],
			"name": "decreaseAllowance",
			"outputs": [
				{
					"internalType": "bool",
					"name": "",
					"type": "bool"
				}
			],
			"stateMutability": "nonpayable",
			"type": "function"
		},
		{
			"inputs": [
				{
					"internalType": "address",
					"name": "spender",
					"type": "address"
				},
				{
					"internalType": "uint256",
					"name": "addedValue",
					"type": "uint256"
				}
			],
			"name": "increaseAllowance",
			"outputs": [
				{
					"internalType": "bool",
					"name": "",
					"type": "bool"
				}
			],
			"stateMutability": "nonpayable",
			"type": "function"
		},
		{
			"inputs": [],
			"name": "initialize",
			"outputs": [],
			"stateMutability": "nonpayable",
			"type": "function"
		},
		{
			"inputs": [
				{
					"internalType": "bytes32",
					"name": "_a",
					"type": "bytes32"
				},
				{
					"internalType": "bytes32",
					"name": "_b",
					"type": "bytes32"
				}
			],
			"name": "keccak256Test",
			"outputs": [
				{
					"internalType": "bytes32",
					"name": "",
					"type": "bytes32"
				}
			],
			"stateMutability": "pure",
			"type": "function"
		},
		{
			"inputs": [
				{
					"internalType": "uint256",
					"name": "",
					"type": "uint256"
				}
			],
			"name": "medianAvg_mod",
			"outputs": [
				{
					"internalType": "uint256",
					"name": "",
					"type": "uint256"
				}
			],
			"stateMutability": "view",
			"type": "function"
		},
		{
			"inputs": [
				{
					"internalType": "uint256",
					"name": "",
					"type": "uint256"
				}
			],
			"name": "minMaxAvr",
			"outputs": [
				{
					"internalType": "uint256",
					"name": "",
					"type": "uint256"
				}
			],
			"stateMutability": "view",
			"type": "function"
		},
		{
			"inputs": [],
			"name": "name",
			"outputs": [
				{
					"internalType": "string",
					"name": "",
					"type": "string"
				}
			],
			"stateMutability": "view",
			"type": "function"
		},
		{
			"inputs": [],
			"name": "numberLatestUsersEntropy",
			"outputs": [
				{
					"internalType": "uint256",
					"name": "",
					"type": "uint256"
				}
			],
			"stateMutability": "view",
			"type": "function"
		},
		{
			"inputs": [],
			"name": "owner",
			"outputs": [
				{
					"internalType": "address",
					"name": "",
					"type": "address"
				}
			],
			"stateMutability": "view",
			"type": "function"
		},
		{
			"inputs": [],
			"name": "renounceOwnership",
			"outputs": [],
			"stateMutability": "nonpayable",
			"type": "function"
		},
		{
			"inputs": [],
			"name": "rewardsPerBlock",
			"outputs": [
				{
					"internalType": "uint256",
					"name": "",
					"type": "uint256"
				}
			],
			"stateMutability": "view",
			"type": "function"
		},
		{
			"inputs": [
				{
					"internalType": "uint256",
					"name": "_InitToken",
					"type": "uint256"
				}
			],
			"name": "setInitToken",
			"outputs": [],
			"stateMutability": "payable",
			"type": "function"
		},
		{
			"inputs": [
				{
					"internalType": "uint256",
					"name": "_a",
					"type": "uint256"
				}
			],
			"name": "set_FormationNumber",
			"outputs": [],
			"stateMutability": "nonpayable",
			"type": "function"
		},
		{
			"inputs": [
				{
					"internalType": "bytes32",
					"name": "",
					"type": "bytes32"
				}
			],
			"name": "struct_EntropyRegister_ID",
			"outputs": [
				{
					"internalType": "bytes32",
					"name": "usersEntropy",
					"type": "bytes32"
				},
				{
					"internalType": "bool",
					"name": "verifyDuplicate",
					"type": "bool"
				},
				{
					"internalType": "bytes32",
					"name": "revealEntropy",
					"type": "bytes32"
				}
			],
			"stateMutability": "view",
			"type": "function"
		},
		{
			"inputs": [
				{
					"internalType": "address",
					"name": "",
					"type": "address"
				}
			],
			"name": "struct_accountTxCount_ID",
			"outputs": [
				{
					"internalType": "address",
					"name": "accountAddress",
					"type": "address"
				},
				{
					"internalType": "uint256",
					"name": "A_counting",
					"type": "uint256"
				}
			],
			"stateMutability": "view",
			"type": "function"
		},
		{
			"inputs": [
				{
					"internalType": "uint256",
					"name": "",
					"type": "uint256"
				}
			],
			"name": "struct_block_ID",
			"outputs": [
				{
					"internalType": "uint256",
					"name": "blockCount",
					"type": "uint256"
				}
			],
			"stateMutability": "view",
			"type": "function"
		},
		{
			"inputs": [],
			"name": "symbol",
			"outputs": [
				{
					"internalType": "string",
					"name": "",
					"type": "string"
				}
			],
			"stateMutability": "view",
			"type": "function"
		},
		{
			"inputs": [],
			"name": "totalSupply",
			"outputs": [
				{
					"internalType": "uint256",
					"name": "",
					"type": "uint256"
				}
			],
			"stateMutability": "view",
			"type": "function"
		},
		{
			"inputs": [
				{
					"internalType": "address",
					"name": "recipient",
					"type": "address"
				},
				{
					"internalType": "uint256",
					"name": "amount",
					"type": "uint256"
				}
			],
			"name": "transfer",
			"outputs": [
				{
					"internalType": "bool",
					"name": "",
					"type": "bool"
				}
			],
			"stateMutability": "nonpayable",
			"type": "function"
		},
		{
			"inputs": [
				{
					"internalType": "address",
					"name": "sender",
					"type": "address"
				},
				{
					"internalType": "address",
					"name": "recipient",
					"type": "address"
				},
				{
					"internalType": "uint256",
					"name": "amount",
					"type": "uint256"
				}
			],
			"name": "transferFrom",
			"outputs": [
				{
					"internalType": "bool",
					"name": "",
					"type": "bool"
				}
			],
			"stateMutability": "nonpayable",
			"type": "function"
		},
		{
			"inputs": [
				{
					"internalType": "address",
					"name": "newOwner",
					"type": "address"
				}
			],
			"name": "transferOwnership",
			"outputs": [],
			"stateMutability": "nonpayable",
			"type": "function"
		},
		{
			"inputs": [],
			"name": "upcomingRevealBlockNo",
			"outputs": [
				{
					"internalType": "uint256",
					"name": "",
					"type": "uint256"
				}
			],
			"stateMutability": "view",
			"type": "function"
		},
		{
			"inputs": [
				{
					"internalType": "address",
					"name": "newImplementation",
					"type": "address"
				}
			],
			"name": "upgradeTo",
			"outputs": [],
			"stateMutability": "nonpayable",
			"type": "function"
		},
		{
			"inputs": [
				{
					"internalType": "address",
					"name": "newImplementation",
					"type": "address"
				},
				{
					"internalType": "bytes",
					"name": "data",
					"type": "bytes"
				}
			],
			"name": "upgradeToAndCall",
			"outputs": [],
			"stateMutability": "payable",
			"type": "function"
		},
		{
			"stateMutability": "payable",
			"type": "receive"
		}
	]
}